{
  "_format": "hh-sol-artifact-1",
  "contractName": "IGLSkybox",
  "sourceName": "contracts/IGLSkybox.sol",
  "abi": [
    {
      "inputs": [
        {
          "internalType": "string",
          "name": "contractName",
          "type": "string"
        },
        {
          "internalType": "string",
          "name": "contractSymbol",
          "type": "string"
        },
        {
          "internalType": "address",
          "name": "_erc20token",
          "type": "address"
        },
        {
          "internalType": "address",
          "name": "_vault",
          "type": "address"
        },
        {
          "internalType": "address",
          "name": "_signer",
          "type": "address"
        },
        {
          "internalType": "string",
          "name": "__baseTokenURI",
          "type": "string"
        },
        {
          "internalType": "string",
          "name": "_hiddenMetadataUri",
          "type": "string"
        },
        {
          "internalType": "address[]",
          "name": "_payees",
          "type": "address[]"
        },
        {
          "internalType": "uint256[]",
          "name": "_shares",
          "type": "uint256[]"
        }
      ],
      "stateMutability": "payable",
      "type": "constructor"
    },
    {
      "anonymous": false,
      "inputs": [
        {
          "indexed": true,
          "internalType": "address",
          "name": "owner",
          "type": "address"
        },
        {
          "indexed": true,
          "internalType": "address",
          "name": "approved",
          "type": "address"
        },
        {
          "indexed": true,
          "internalType": "uint256",
          "name": "tokenId",
          "type": "uint256"
        }
      ],
      "name": "Approval",
      "type": "event"
    },
    {
      "anonymous": false,
      "inputs": [
        {
          "indexed": true,
          "internalType": "address",
          "name": "owner",
          "type": "address"
        },
        {
          "indexed": true,
          "internalType": "address",
          "name": "operator",
          "type": "address"
        },
        {
          "indexed": false,
          "internalType": "bool",
          "name": "approved",
          "type": "bool"
        }
      ],
      "name": "ApprovalForAll",
      "type": "event"
    },
    {
      "anonymous": false,
      "inputs": [
        {
          "indexed": true,
          "internalType": "contract IERC20",
          "name": "token",
          "type": "address"
        },
        {
          "indexed": false,
          "internalType": "address",
          "name": "to",
          "type": "address"
        },
        {
          "indexed": false,
          "internalType": "uint256",
          "name": "amount",
          "type": "uint256"
        }
      ],
      "name": "ERC20PaymentReleased",
      "type": "event"
    },
    {
      "anonymous": false,
      "inputs": [
        {
          "indexed": true,
          "internalType": "address",
          "name": "previousOwner",
          "type": "address"
        },
        {
          "indexed": true,
          "internalType": "address",
          "name": "newOwner",
          "type": "address"
        }
      ],
      "name": "OwnershipTransferred",
      "type": "event"
    },
    {
      "anonymous": false,
      "inputs": [
        {
          "indexed": false,
          "internalType": "address",
          "name": "account",
          "type": "address"
        },
        {
          "indexed": false,
          "internalType": "uint256",
          "name": "shares",
          "type": "uint256"
        }
      ],
      "name": "PayeeAdded",
      "type": "event"
    },
    {
      "anonymous": false,
      "inputs": [
        {
          "indexed": false,
          "internalType": "address",
          "name": "from",
          "type": "address"
        },
        {
          "indexed": false,
          "internalType": "uint256",
          "name": "amount",
          "type": "uint256"
        }
      ],
      "name": "PaymentReceived",
      "type": "event"
    },
    {
      "anonymous": false,
      "inputs": [
        {
          "indexed": false,
          "internalType": "address",
          "name": "to",
          "type": "address"
        },
        {
          "indexed": false,
          "internalType": "uint256",
          "name": "amount",
          "type": "uint256"
        }
      ],
      "name": "PaymentReleased",
      "type": "event"
    },
    {
      "anonymous": false,
      "inputs": [
        {
          "indexed": true,
          "internalType": "address",
          "name": "from",
          "type": "address"
        },
        {
          "indexed": true,
          "internalType": "address",
          "name": "to",
          "type": "address"
        },
        {
          "indexed": true,
          "internalType": "uint256",
          "name": "tokenId",
          "type": "uint256"
        }
      ],
      "name": "Transfer",
      "type": "event"
    },
    {
      "inputs": [],
      "name": "Author",
      "outputs": [
        {
          "internalType": "string",
          "name": "",
          "type": "string"
        }
      ],
      "stateMutability": "view",
      "type": "function"
    },
    {
      "inputs": [],
      "name": "MAX_TOKENS",
      "outputs": [
        {
          "internalType": "uint256",
          "name": "",
          "type": "uint256"
        }
      ],
      "stateMutability": "view",
      "type": "function"
    },
    {
      "inputs": [],
      "name": "ProjectTeam",
      "outputs": [
        {
          "internalType": "string",
          "name": "",
          "type": "string"
        }
      ],
      "stateMutability": "view",
      "type": "function"
    },
    {
      "inputs": [
        {
          "internalType": "address",
          "name": "to",
          "type": "address"
        },
        {
          "internalType": "uint256",
          "name": "tokenId",
          "type": "uint256"
        }
      ],
      "name": "approve",
      "outputs": [],
      "stateMutability": "nonpayable",
      "type": "function"
    },
    {
      "inputs": [
        {
          "internalType": "address",
          "name": "sourceAddress",
          "type": "address"
        },
        {
          "internalType": "address",
          "name": "contractAddy",
          "type": "address"
        },
        {
          "internalType": "uint256",
          "name": "amount",
          "type": "uint256"
        }
      ],
      "name": "approveContract",
      "outputs": [
        {
          "internalType": "bool",
          "name": "approved",
          "type": "bool"
        }
      ],
      "stateMutability": "nonpayable",
      "type": "function"
    },
    {
      "inputs": [
        {
          "internalType": "address",
          "name": "owner",
          "type": "address"
        }
      ],
      "name": "balanceOf",
      "outputs": [
        {
          "internalType": "uint256",
          "name": "",
          "type": "uint256"
        }
      ],
      "stateMutability": "view",
      "type": "function"
    },
    {
      "inputs": [],
      "name": "baseExtension",
      "outputs": [
        {
          "internalType": "string",
          "name": "",
          "type": "string"
        }
      ],
      "stateMutability": "view",
      "type": "function"
    },
    {
      "inputs": [
        {
          "internalType": "uint256",
          "name": "tokenId",
          "type": "uint256"
        }
      ],
      "name": "burn",
      "outputs": [],
      "stateMutability": "nonpayable",
      "type": "function"
    },
    {
      "inputs": [],
      "name": "buyBonusMultiplier",
      "outputs": [
        {
          "internalType": "uint256",
          "name": "",
          "type": "uint256"
        }
      ],
      "stateMutability": "view",
      "type": "function"
    },
    {
      "inputs": [],
      "name": "crossMintAddress",
      "outputs": [
        {
          "internalType": "address",
          "name": "",
          "type": "address"
        }
      ],
      "stateMutability": "view",
      "type": "function"
    },
    {
      "inputs": [
        {
          "internalType": "address",
          "name": "_to",
          "type": "address"
        },
        {
          "internalType": "uint256",
          "name": "quantity",
          "type": "uint256"
        }
      ],
      "name": "crossmint",
      "outputs": [],
      "stateMutability": "payable",
      "type": "function"
    },
    {
      "inputs": [],
      "name": "erc20Token",
      "outputs": [
        {
          "internalType": "address",
          "name": "",
          "type": "address"
        }
      ],
      "stateMutability": "view",
      "type": "function"
    },
    {
      "inputs": [],
      "name": "erc20TokenPrice",
      "outputs": [
        {
          "internalType": "uint256",
          "name": "",
          "type": "uint256"
        }
      ],
      "stateMutability": "view",
      "type": "function"
    },
    {
      "inputs": [
        {
          "internalType": "uint256",
          "name": "tokenId",
          "type": "uint256"
        }
      ],
      "name": "getApproved",
      "outputs": [
        {
          "internalType": "address",
          "name": "",
          "type": "address"
        }
      ],
      "stateMutability": "view",
      "type": "function"
    },
    {
      "inputs": [],
      "name": "hiddenMetadataUri",
      "outputs": [
        {
          "internalType": "string",
          "name": "",
          "type": "string"
        }
      ],
      "stateMutability": "view",
      "type": "function"
    },
    {
      "inputs": [
        {
          "internalType": "address",
          "name": "owner",
          "type": "address"
        },
        {
          "internalType": "address",
          "name": "operator",
          "type": "address"
        }
      ],
      "name": "isApprovedForAll",
      "outputs": [
        {
          "internalType": "bool",
          "name": "",
          "type": "bool"
        }
      ],
      "stateMutability": "view",
      "type": "function"
    },
    {
      "inputs": [],
      "name": "maxWhitelistPassMints",
      "outputs": [
        {
          "internalType": "uint256",
          "name": "",
          "type": "uint256"
        }
      ],
      "stateMutability": "view",
      "type": "function"
    },
    {
      "inputs": [],
      "name": "name",
      "outputs": [
        {
          "internalType": "string",
          "name": "",
          "type": "string"
        }
      ],
      "stateMutability": "view",
      "type": "function"
    },
    {
      "inputs": [
        {
          "internalType": "uint256",
          "name": "quantity",
          "type": "uint256"
        }
      ],
      "name": "openMint",
      "outputs": [],
      "stateMutability": "payable",
      "type": "function"
    },
    {
      "inputs": [
        {
          "internalType": "uint256",
          "name": "quantity",
          "type": "uint256"
        }
      ],
      "name": "openMintWithERC",
      "outputs": [],
      "stateMutability": "nonpayable",
      "type": "function"
    },
    {
      "inputs": [],
      "name": "owner",
      "outputs": [
        {
          "internalType": "address",
          "name": "",
          "type": "address"
        }
      ],
      "stateMutability": "view",
      "type": "function"
    },
    {
      "inputs": [
        {
          "internalType": "uint256",
          "name": "tokenId",
          "type": "uint256"
        }
      ],
      "name": "ownerOf",
      "outputs": [
        {
          "internalType": "address",
          "name": "",
          "type": "address"
        }
      ],
      "stateMutability": "view",
      "type": "function"
    },
    {
      "inputs": [
        {
          "internalType": "uint256",
          "name": "index",
          "type": "uint256"
        }
      ],
      "name": "payee",
      "outputs": [
        {
          "internalType": "address",
          "name": "",
          "type": "address"
        }
      ],
      "stateMutability": "view",
      "type": "function"
    },
    {
      "inputs": [],
      "name": "privateMintIsOpen",
      "outputs": [
        {
          "internalType": "bool",
          "name": "",
          "type": "bool"
        }
      ],
      "stateMutability": "view",
      "type": "function"
    },
    {
      "inputs": [],
      "name": "publicCrossMintIsOpen",
      "outputs": [
        {
          "internalType": "bool",
          "name": "",
          "type": "bool"
        }
      ],
      "stateMutability": "view",
      "type": "function"
    },
    {
      "inputs": [],
      "name": "publicERC20MintIsOpen",
      "outputs": [
        {
          "internalType": "bool",
          "name": "",
          "type": "bool"
        }
      ],
      "stateMutability": "view",
      "type": "function"
    },
    {
      "inputs": [],
      "name": "publicMintIsOpen",
      "outputs": [
        {
          "internalType": "bool",
          "name": "",
          "type": "bool"
        }
      ],
      "stateMutability": "view",
      "type": "function"
    },
    {
      "inputs": [],
      "name": "publicMintMaxLimit",
      "outputs": [
        {
          "internalType": "uint256",
          "name": "",
          "type": "uint256"
        }
      ],
      "stateMutability": "view",
      "type": "function"
    },
    {
      "inputs": [
        {
          "internalType": "address payable",
          "name": "account",
          "type": "address"
        }
      ],
      "name": "release",
      "outputs": [],
      "stateMutability": "nonpayable",
      "type": "function"
    },
    {
      "inputs": [
        {
          "internalType": "contract IERC20",
          "name": "token",
          "type": "address"
        },
        {
          "internalType": "address",
          "name": "account",
          "type": "address"
        }
      ],
      "name": "release",
      "outputs": [],
      "stateMutability": "nonpayable",
      "type": "function"
    },
    {
      "inputs": [
        {
          "internalType": "contract IERC20",
          "name": "token",
          "type": "address"
        },
        {
          "internalType": "address",
          "name": "account",
          "type": "address"
        }
      ],
      "name": "released",
      "outputs": [
        {
          "internalType": "uint256",
          "name": "",
          "type": "uint256"
        }
      ],
      "stateMutability": "view",
      "type": "function"
    },
    {
      "inputs": [
        {
          "internalType": "address",
          "name": "account",
          "type": "address"
        }
      ],
      "name": "released",
      "outputs": [
        {
          "internalType": "uint256",
          "name": "",
          "type": "uint256"
        }
      ],
      "stateMutability": "view",
      "type": "function"
    },
    {
      "inputs": [],
      "name": "renounceOwnership",
      "outputs": [],
      "stateMutability": "nonpayable",
      "type": "function"
    },
    {
      "inputs": [],
      "name": "revealed",
      "outputs": [
        {
          "internalType": "bool",
          "name": "",
          "type": "bool"
        }
      ],
      "stateMutability": "view",
      "type": "function"
    },
    {
      "inputs": [
        {
          "internalType": "address",
          "name": "from",
          "type": "address"
        },
        {
          "internalType": "address",
          "name": "to",
          "type": "address"
        },
        {
          "internalType": "uint256",
          "name": "tokenId",
          "type": "uint256"
        }
      ],
      "name": "safeTransferFrom",
      "outputs": [],
      "stateMutability": "nonpayable",
      "type": "function"
    },
    {
      "inputs": [
        {
          "internalType": "address",
          "name": "from",
          "type": "address"
        },
        {
          "internalType": "address",
          "name": "to",
          "type": "address"
        },
        {
          "internalType": "uint256",
          "name": "tokenId",
          "type": "uint256"
        },
        {
          "internalType": "bytes",
          "name": "_data",
          "type": "bytes"
        }
      ],
      "name": "safeTransferFrom",
      "outputs": [],
      "stateMutability": "nonpayable",
      "type": "function"
    },
    {
      "inputs": [
        {
          "internalType": "address",
          "name": "operator",
          "type": "address"
        },
        {
          "internalType": "bool",
          "name": "approved",
          "type": "bool"
        }
      ],
      "name": "setApprovalForAll",
      "outputs": [],
      "stateMutability": "nonpayable",
      "type": "function"
    },
    {
      "inputs": [
        {
          "internalType": "string",
          "name": "_baseExtension",
          "type": "string"
        }
      ],
      "name": "setBaseExtension",
      "outputs": [],
      "stateMutability": "nonpayable",
      "type": "function"
    },
    {
      "inputs": [
        {
          "internalType": "string",
          "name": "newBaseURI",
          "type": "string"
        }
      ],
      "name": "setBaseURI",
      "outputs": [],
      "stateMutability": "nonpayable",
      "type": "function"
    },
    {
      "inputs": [
        {
          "internalType": "uint256",
          "name": "amount",
          "type": "uint256"
        }
      ],
      "name": "setFreeMints",
      "outputs": [],
      "stateMutability": "nonpayable",
      "type": "function"
    },
    {
      "inputs": [
        {
          "internalType": "string",
          "name": "_hiddenMetadataUri",
          "type": "string"
        }
      ],
      "name": "setHiddenMetadataUri",
      "outputs": [],
      "stateMutability": "nonpayable",
      "type": "function"
    },
    {
      "inputs": [
        {
          "internalType": "uint256",
          "name": "newPrice",
          "type": "uint256"
        },
        {
          "internalType": "uint256",
          "name": "newWhitelistTokenPrice",
          "type": "uint256"
        },
        {
          "internalType": "uint256",
          "name": "setOpenMintLimit",
          "type": "uint256"
        },
        {
          "internalType": "uint256",
          "name": "setWhistlistPassMintLimit",
          "type": "uint256"
        },
        {
          "internalType": "address",
          "name": "setCrossMintAddress",
          "type": "address"
        },
        {
          "internalType": "bool",
          "name": "setPublicMintState",
          "type": "bool"
        },
        {
          "internalType": "bool",
          "name": "setPrivateMintState",
          "type": "bool"
        },
        {
          "internalType": "bool",
          "name": "setPublicERC20MintState",
          "type": "bool"
        },
        {
          "internalType": "bool",
          "name": "setPublicCrossMintState",
          "type": "bool"
        }
      ],
      "name": "setParams",
      "outputs": [],
      "stateMutability": "nonpayable",
      "type": "function"
    },
    {
      "inputs": [
        {
          "internalType": "bool",
          "name": "_state",
          "type": "bool"
        }
      ],
      "name": "setRevealed",
      "outputs": [],
      "stateMutability": "nonpayable",
      "type": "function"
    },
    {
      "inputs": [
        {
          "internalType": "address",
          "name": "newSigner",
          "type": "address"
        }
      ],
      "name": "setSignerAddress",
      "outputs": [],
      "stateMutability": "nonpayable",
      "type": "function"
    },
    {
      "inputs": [
        {
          "internalType": "uint256",
          "name": "newPrice",
          "type": "uint256"
        }
      ],
      "name": "setTokenPrice",
      "outputs": [],
      "stateMutability": "nonpayable",
      "type": "function"
    },
    {
      "inputs": [
        {
          "internalType": "uint256",
          "name": "newMintLimit",
          "type": "uint256"
        }
      ],
      "name": "setTransactionMintLimit",
      "outputs": [],
      "stateMutability": "nonpayable",
      "type": "function"
    },
    {
      "inputs": [
        {
          "internalType": "address",
          "name": "newVault",
          "type": "address"
        }
      ],
      "name": "setVaultAddress",
      "outputs": [],
      "stateMutability": "nonpayable",
      "type": "function"
    },
    {
      "inputs": [
        {
          "internalType": "uint256",
          "name": "newprivateMintLimit",
          "type": "uint256"
        }
      ],
      "name": "setWhitelistTransactionMintLimit",
      "outputs": [],
      "stateMutability": "nonpayable",
      "type": "function"
    },
    {
      "inputs": [
        {
          "internalType": "address",
          "name": "account",
          "type": "address"
        }
      ],
      "name": "shares",
      "outputs": [
        {
          "internalType": "uint256",
          "name": "",
          "type": "uint256"
        }
      ],
      "stateMutability": "view",
      "type": "function"
    },
    {
      "inputs": [
        {
          "internalType": "bytes4",
          "name": "interfaceId",
          "type": "bytes4"
        }
      ],
      "name": "supportsInterface",
      "outputs": [
        {
          "internalType": "bool",
          "name": "",
          "type": "bool"
        }
      ],
      "stateMutability": "view",
      "type": "function"
    },
    {
      "inputs": [],
      "name": "symbol",
      "outputs": [
        {
          "internalType": "string",
          "name": "",
          "type": "string"
        }
      ],
      "stateMutability": "view",
      "type": "function"
    },
    {
      "inputs": [
        {
          "internalType": "address",
          "name": "to",
          "type": "address"
        },
        {
          "internalType": "uint256",
          "name": "amount",
          "type": "uint256"
        }
      ],
      "name": "teamMint",
      "outputs": [],
      "stateMutability": "nonpayable",
      "type": "function"
    },
    {
      "inputs": [],
      "name": "toggleERC20PublicMint",
      "outputs": [],
      "stateMutability": "nonpayable",
      "type": "function"
    },
    {
      "inputs": [],
      "name": "togglePresaleMint",
      "outputs": [],
      "stateMutability": "nonpayable",
      "type": "function"
    },
    {
      "inputs": [],
      "name": "togglePublicCrossMint",
      "outputs": [],
      "stateMutability": "nonpayable",
      "type": "function"
    },
    {
      "inputs": [],
      "name": "togglePublicMint",
      "outputs": [],
      "stateMutability": "nonpayable",
      "type": "function"
    },
    {
      "inputs": [],
      "name": "tokenPrice",
      "outputs": [
        {
          "internalType": "uint256",
          "name": "",
          "type": "uint256"
        }
      ],
      "stateMutability": "view",
      "type": "function"
    },
    {
      "inputs": [
        {
          "internalType": "uint256",
          "name": "_tokenId",
          "type": "uint256"
        }
      ],
      "name": "tokenURI",
      "outputs": [
        {
          "internalType": "string",
          "name": "",
          "type": "string"
        }
      ],
      "stateMutability": "view",
      "type": "function"
    },
    {
      "inputs": [
        {
          "internalType": "contract IERC20",
          "name": "token",
          "type": "address"
        }
      ],
      "name": "totalReleased",
      "outputs": [
        {
          "internalType": "uint256",
          "name": "",
          "type": "uint256"
        }
      ],
      "stateMutability": "view",
      "type": "function"
    },
    {
      "inputs": [],
      "name": "totalReleased",
      "outputs": [
        {
          "internalType": "uint256",
          "name": "",
          "type": "uint256"
        }
      ],
      "stateMutability": "view",
      "type": "function"
    },
    {
      "inputs": [],
      "name": "totalShares",
      "outputs": [
        {
          "internalType": "uint256",
          "name": "",
          "type": "uint256"
        }
      ],
      "stateMutability": "view",
      "type": "function"
    },
    {
      "inputs": [],
      "name": "totalSupply",
      "outputs": [
        {
          "internalType": "uint256",
          "name": "",
          "type": "uint256"
        }
      ],
      "stateMutability": "view",
      "type": "function"
    },
    {
      "inputs": [
        {
          "internalType": "address",
          "name": "tokenAddress",
          "type": "address"
        },
        {
          "internalType": "address",
          "name": "recipient",
          "type": "address"
        },
        {
          "internalType": "uint256",
          "name": "amount",
          "type": "uint256"
        }
      ],
      "name": "transferAnyERC20Token",
      "outputs": [],
      "stateMutability": "nonpayable",
      "type": "function"
    },
    {
      "inputs": [
        {
          "internalType": "address",
          "name": "destination",
          "type": "address"
        },
        {
          "internalType": "uint256",
          "name": "amount",
          "type": "uint256"
        }
      ],
      "name": "transferContractTokens",
      "outputs": [],
      "stateMutability": "nonpayable",
      "type": "function"
    },
    {
      "inputs": [
        {
          "internalType": "address",
          "name": "from",
          "type": "address"
        },
        {
          "internalType": "address",
          "name": "to",
          "type": "address"
        },
        {
          "internalType": "uint256",
          "name": "tokenId",
          "type": "uint256"
        }
      ],
      "name": "transferFrom",
      "outputs": [],
      "stateMutability": "nonpayable",
      "type": "function"
    },
    {
      "inputs": [
        {
          "internalType": "address",
          "name": "newOwner",
          "type": "address"
        }
      ],
      "name": "transferOwnership",
      "outputs": [],
      "stateMutability": "nonpayable",
      "type": "function"
    },
    {
      "inputs": [
        {
          "internalType": "address",
          "name": "_erc20Token",
          "type": "address"
        }
      ],
      "name": "updateERC20Token",
      "outputs": [],
      "stateMutability": "nonpayable",
      "type": "function"
    },
    {
      "inputs": [
        {
          "internalType": "uint256",
          "name": "_newPrice",
          "type": "uint256"
        }
      ],
      "name": "updateERC20TokenMintPrice",
      "outputs": [],
      "stateMutability": "nonpayable",
      "type": "function"
    },
    {
      "inputs": [
        {
          "internalType": "uint256",
          "name": "_multiplier",
          "type": "uint256"
        }
      ],
      "name": "updateMultiplier",
      "outputs": [],
      "stateMutability": "nonpayable",
      "type": "function"
    },
    {
      "inputs": [
        {
          "internalType": "uint256",
          "name": "quantity",
          "type": "uint256"
        },
        {
          "internalType": "uint256",
          "name": "claimable",
          "type": "uint256"
        },
        {
          "components": [
            {
              "internalType": "bytes32",
              "name": "r",
              "type": "bytes32"
            },
            {
              "internalType": "bytes32",
              "name": "s",
              "type": "bytes32"
            },
            {
              "internalType": "uint8",
              "name": "v",
              "type": "uint8"
            }
          ],
          "internalType": "struct IGLSkybox.WhitelistClaimPass",
          "name": "whitelistClaimPass",
          "type": "tuple"
        }
      ],
      "name": "whitelistClaimMint",
      "outputs": [],
      "stateMutability": "payable",
      "type": "function"
    },
    {
      "inputs": [],
      "name": "whitelistMintMaxLimit",
      "outputs": [
        {
          "internalType": "uint256",
          "name": "",
          "type": "uint256"
        }
      ],
      "stateMutability": "view",
      "type": "function"
    },
    {
      "inputs": [],
      "name": "whitelistTokenPrice",
      "outputs": [
        {
          "internalType": "uint256",
          "name": "",
          "type": "uint256"
        }
      ],
      "stateMutability": "view",
      "type": "function"
    },
    {
      "inputs": [],
      "name": "withdraw",
      "outputs": [],
      "stateMutability": "nonpayable",
      "type": "function"
    },
    {
      "stateMutability": "payable",
      "type": "receive"
    }
  ],
  "bytecode": "0x6032601281905560135566d529ae9e860000601455670de0b6b3a7640000601555600060165561038460175560016018556019805464ffffffffff1916905560c06040526005608081905264173539b7b760d91b60a09081526200006791601b9190620008e3565b50601d80546001600160a01b031990811673dab1a1854214684ace522439684a145e6250523317909155601e805482169055601f80548216905560208054909116815560408051808201909152600680825265446961626c6f60d01b91909201908152620000d99160229190620008e3565b50604080518082019091526008808252676e667470756d707360c01b60209092019182526200010b91602391620008e3565b5060405162005bf438038062005bf48339810160408190526200012e9162000b92565b81818a8a6200013d3362000357565b815162000152906001906020850190620008e3565b50805162000168906002906020840190620008e3565b50506001600855508051825114620001e25760405162461bcd60e51b815260206004820152603260248201527f5061796d656e7453706c69747465723a2070617965657320616e6420736861726044820152710cae640d8cadccee8d040dad2e6dac2e8c6d60731b60648201526084015b60405180910390fd5b6000825111620002355760405162461bcd60e51b815260206004820152601a60248201527f5061796d656e7453706c69747465723a206e6f207061796565730000000000006044820152606401620001d9565b60005b8251811015620002a1576200028c8382815181106200025b576200025b62000cd3565b602002602001015183838151811062000278576200027862000cd3565b6020026020010151620003a760201b60201c565b80620002988162000cff565b91505062000238565b5050601f80546001600160a01b03808b166001600160a01b031992831617909255601e80548a84169083161790556020805492891692909116919091178155620002f891506010906200361462000595821b17901c565b6200030f60106200059560201b620036141760201c565b6200031c3360016200059e565b83516200033190601a906020870190620008e3565b5082516200034790601c906020860190620008e3565b5050505050505050505062000dfe565b600080546001600160a01b038381166001600160a01b0319831681178455604051919092169283917f8be0079c531659141344cd1fd0a4f28419497f9722a3daafe3b4186f6b6457e09190a35050565b6001600160a01b038216620004145760405162461bcd60e51b815260206004820152602c60248201527f5061796d656e7453706c69747465723a206163636f756e74206973207468652060448201526b7a65726f206164647265737360a01b6064820152608401620001d9565b60008111620004665760405162461bcd60e51b815260206004820152601d60248201527f5061796d656e7453706c69747465723a207368617265732061726520300000006044820152606401620001d9565b6001600160a01b0382166000908152600b602052604090205415620004e25760405162461bcd60e51b815260206004820152602b60248201527f5061796d656e7453706c69747465723a206163636f756e7420616c726561647960448201526a206861732073686172657360a81b6064820152608401620001d9565b600d8054600181019091557fd7b6990105719101dabeb77144f2a3385c8033acd3af97e9423a695e81ad1eb50180546001600160a01b0319166001600160a01b0384169081179091556000908152600b602052604090208190556009546200054c90829062000d1d565b600955604080516001600160a01b0384168152602081018390527f40c340f65e17194d14ddddb073d3c9f888e3cb52b5aae0c6c7706b4fbc905fac910160405180910390a15050565b80546001019055565b620005c0828260405180602001604052806000815250620005c460201b60201c565b5050565b620005d083836200063c565b620005df600084848462000784565b620006375760405162461bcd60e51b8152602060048201526032602482015260008051602062005bd483398151915260448201527131b2b4bb32b91034b6b83632b6b2b73a32b960711b6064820152608401620001d9565b505050565b6001600160a01b038216620006945760405162461bcd60e51b815260206004820181905260248201527f4552433732313a206d696e7420746f20746865207a65726f20616464726573736044820152606401620001d9565b6000818152600360205260409020546001600160a01b031615620006fb5760405162461bcd60e51b815260206004820152601c60248201527f4552433732313a20746f6b656e20616c7265616479206d696e746564000000006044820152606401620001d9565b6001600160a01b03821660009081526004602052604081208054600192906200072690849062000d1d565b909155505060008181526003602052604080822080546001600160a01b0319166001600160a01b03861690811790915590518392907fddf252ad1be2c89b69c2b068fc378daa952ba7f163c4a11628f55a4df523b3ef908290a45050565b6000620007a5846001600160a01b0316620008dd60201b6200361d1760201c565b15620008d157604051630a85bd0160e11b81526001600160a01b0385169063150b7a0290620007df90339089908890889060040162000d38565b6020604051808303816000875af19250505080156200081d575060408051601f3d908101601f191682019092526200081a9181019062000d8e565b60015b620008b6573d8080156200084e576040519150601f19603f3d011682016040523d82523d6000602084013e62000853565b606091505b508051620008ae5760405162461bcd60e51b8152602060048201526032602482015260008051602062005bd483398151915260448201527131b2b4bb32b91034b6b83632b6b2b73a32b960711b6064820152608401620001d9565b805181602001fd5b6001600160e01b031916630a85bd0160e11b149050620008d5565b5060015b949350505050565b3b151590565b828054620008f19062000dc1565b90600052602060002090601f01602090048101928262000915576000855562000960565b82601f106200093057805160ff191683800117855562000960565b8280016001018555821562000960579182015b828111156200096057825182559160200191906001019062000943565b506200096e92915062000972565b5090565b5b808211156200096e576000815560010162000973565b634e487b7160e01b600052604160045260246000fd5b604051601f8201601f191681016001600160401b0381118282101715620009ca57620009ca62000989565b604052919050565b60005b83811015620009ef578181015183820152602001620009d5565b83811115620009ff576000848401525b50505050565b600082601f83011262000a1757600080fd5b81516001600160401b0381111562000a335762000a3362000989565b62000a48601f8201601f19166020016200099f565b81815284602083860101111562000a5e57600080fd5b620008d5826020830160208701620009d2565b80516001600160a01b038116811462000a8957600080fd5b919050565b60006001600160401b0382111562000aaa5762000aaa62000989565b5060051b60200190565b600082601f83011262000ac657600080fd5b8151602062000adf62000ad98362000a8e565b6200099f565b82815260059290921b8401810191818101908684111562000aff57600080fd5b8286015b8481101562000b255762000b178162000a71565b835291830191830162000b03565b509695505050505050565b600082601f83011262000b4257600080fd5b8151602062000b5562000ad98362000a8e565b82815260059290921b8401810191818101908684111562000b7557600080fd5b8286015b8481101562000b25578051835291830191830162000b79565b60008060008060008060008060006101208a8c03121562000bb257600080fd5b89516001600160401b038082111562000bca57600080fd5b62000bd88d838e0162000a05565b9a5060208c015191508082111562000bef57600080fd5b62000bfd8d838e0162000a05565b995062000c0d60408d0162000a71565b985062000c1d60608d0162000a71565b975062000c2d60808d0162000a71565b965060a08c015191508082111562000c4457600080fd5b62000c528d838e0162000a05565b955060c08c015191508082111562000c6957600080fd5b62000c778d838e0162000a05565b945060e08c015191508082111562000c8e57600080fd5b62000c9c8d838e0162000ab4565b93506101008c015191508082111562000cb457600080fd5b5062000cc38c828d0162000b30565b9150509295985092959850929598565b634e487b7160e01b600052603260045260246000fd5b634e487b7160e01b600052601160045260246000fd5b600060001982141562000d165762000d1662000ce9565b5060010190565b6000821982111562000d335762000d3362000ce9565b500190565b600060018060a01b03808716835280861660208401525083604083015260806060830152825180608084015262000d778160a0850160208701620009d2565b601f01601f19169190910160a00195945050505050565b60006020828403121562000da157600080fd5b81516001600160e01b03198116811462000dba57600080fd5b9392505050565b600181811c9082168062000dd657607f821691505b6020821081141562000df857634e487b7160e01b600052602260045260246000fd5b50919050565b614dc68062000e0e6000396000f3fe6080604052600436106104ba5760003560e01c80636a61e5fc11610279578063c87b56dd1161015e578063e33b7de3116100d6578063ee28de521161008a578063f2fde38b1161006f578063f2fde38b14610d95578063f47c84c514610db5578063fa468ead14610dcb57600080fd5b8063ee28de5214610d61578063ee73408a14610d8257600080fd5b8063e7db8fb0116100bb578063e7db8fb014610ce3578063e985e9c514610d03578063ed4dcde614610d4c57600080fd5b8063e33b7de314610cb8578063e4a4255114610ccd57600080fd5b8063d77301c21161012d578063da3ef23f11610112578063da3ef23f14610c58578063e0a8085314610c78578063e2c674a414610c9857600080fd5b8063d77301c214610c02578063d79779b214610c2257600080fd5b8063c87b56dd14610b76578063ce7c2ac214610b96578063d25f404714610bcc578063d493b9ac14610be257600080fd5b8063978c1fb6116101f1578063a45ba8e7116101c0578063af0bc6c3116101a5578063af0bc6c314610b2b578063b88d4fde14610b41578063c668286214610b6157600080fd5b8063a45ba8e714610af6578063add5a4fa14610b0b57600080fd5b8063978c1fb614610a665780639852595c14610a86578063a15d60c514610abc578063a22cb46514610ad657600080fd5b806385535cc5116102485780638b83209b1161022d5780638b83209b14610a135780638da5cb5b14610a3357806395d89b4114610a5157600080fd5b806385535cc5146109d35780638a13eea7146109f357600080fd5b80636a61e5fc1461096857806370a0823114610988578063715018a6146109a85780637ff9b596146109bd57600080fd5b80633ccfd60b1161039f5780634fdd43cb11610317578063577c63ea116102e65780635ee335ac116102cb5780635ee335ac146109085780635ffe6146146109285780636352211e1461094857600080fd5b8063577c63ea146108e057806358891a37146108f557600080fd5b80634fdd43cb1461085e578063518302271461087e578063552f555a146108a057806355f804b3146108c057600080fd5b80634287084f1161036e578063464b0e2211610353578063464b0e22146107fe57806348b750441461081e5780634dffc5c31461083e57600080fd5b80634287084f146107cb57806342966c68146107de57600080fd5b80633ccfd60b1461073b5780634047638d14610750578063406072a91461076557806342842e0e146107ab57600080fd5b806319165587116104325780632cb15fd311610401578063353f849e116103e6578063353f849e146106f25780633a98ef39146107075780633c415ac21461071c57600080fd5b80632cb15fd3146106bc5780632fc09511146106d257600080fd5b80631916558714610651578063200ba9a61461067157806320b2af521461068757806323b872dd1461069c57600080fd5b8063095ea7b3116104895780630d738aeb1161046e5780630d738aeb146105ee5780630f1e68281461060e57806318160ddd1461062e57600080fd5b8063095ea7b3146105b95780630a562aa9146105d957600080fd5b806301ffc9a714610508578063046dc1661461053d57806306fdde031461055f578063081812fc1461058157600080fd5b36610503577f6ef95f06320e7a25a04a175ca677b7052bdd97131872c2192525a629f51be77033604080516001600160a01b0390921682523460208301520160405180910390a1005b600080fd5b34801561051457600080fd5b50610528610523366004614686565b610de1565b60405190151581526020015b60405180910390f35b34801561054957600080fd5b5061055d6105583660046146b8565b610ec6565b005b34801561056b57600080fd5b50610574610f42565b604051610534919061472d565b34801561058d57600080fd5b506105a161059c366004614740565b610fd4565b6040516001600160a01b039091168152602001610534565b3480156105c557600080fd5b5061055d6105d4366004614759565b61107a565b3480156105e557600080fd5b5061055d6111ac565b3480156105fa57600080fd5b5061055d610609366004614740565b611211565b34801561061a57600080fd5b5061055d610629366004614740565b61125e565b34801561063a57600080fd5b506106436112ab565b604051908152602001610534565b34801561065d57600080fd5b5061055d61066c3660046146b8565b6112c7565b34801561067d57600080fd5b5061064360185481565b34801561069357600080fd5b506105746114a1565b3480156106a857600080fd5b5061055d6106b7366004614785565b61152f565b3480156106c857600080fd5b5061064360175481565b3480156106de57600080fd5b506019546105289062010000900460ff1681565b3480156106fe57600080fd5b506105746115b6565b34801561071357600080fd5b50600954610643565b34801561072857600080fd5b5060195461052890610100900460ff1681565b34801561074757600080fd5b5061055d6115c3565b34801561075c57600080fd5b5061055d611647565b34801561077157600080fd5b506106436107803660046147c6565b6001600160a01b039182166000908152600f6020908152604080832093909416825291909152205490565b3480156107b757600080fd5b5061055d6107c6366004614785565b6116a3565b61055d6107d9366004614740565b6116be565b3480156107ea57600080fd5b5061055d6107f9366004614740565b611884565b34801561080a57600080fd5b5061055d610819366004614740565b6118d5565b34801561082a57600080fd5b5061055d6108393660046147c6565b611922565b34801561084a57600080fd5b5061055d6108593660046146b8565b611ba7565b34801561086a57600080fd5b5061055d61087936600461488b565b611c1e565b34801561088a57600080fd5b5060195461052890640100000000900460ff1681565b3480156108ac57600080fd5b5061055d6108bb366004614759565b611c7d565b3480156108cc57600080fd5b5061055d6108db36600461488b565b611ef0565b3480156108ec57600080fd5b5061055d611f4b565b61055d610903366004614759565b611fce565b34801561091457600080fd5b5061055d6109233660046148e2565b612214565b34801561093457600080fd5b5061055d610943366004614740565b61232d565b34801561095457600080fd5b506105a1610963366004614740565b6123fc565b34801561097457600080fd5b5061055d610983366004614740565b612487565b34801561099457600080fd5b506106436109a33660046146b8565b6124d4565b3480156109b457600080fd5b5061055d61256e565b3480156109c957600080fd5b5061064360145481565b3480156109df57600080fd5b5061055d6109ee3660046146b8565b6125c2565b3480156109ff57600080fd5b50601f546105a1906001600160a01b031681565b348015610a1f57600080fd5b506105a1610a2e366004614740565b612639565b348015610a3f57600080fd5b506000546001600160a01b03166105a1565b348015610a5d57600080fd5b50610574612669565b348015610a7257600080fd5b5061055d610a81366004614740565b612678565b348015610a9257600080fd5b50610643610aa13660046146b8565b6001600160a01b03166000908152600c602052604090205490565b348015610ac857600080fd5b506019546105289060ff1681565b348015610ae257600080fd5b5061055d610af136600461497a565b61291b565b348015610b0257600080fd5b50610574612926565b348015610b1757600080fd5b5061055d610b26366004614759565b612933565b348015610b3757600080fd5b5061064360155481565b348015610b4d57600080fd5b5061055d610b5c3660046149a8565b612a28565b348015610b6d57600080fd5b50610574612ab0565b348015610b8257600080fd5b50610574610b91366004614740565b612abd565b348015610ba257600080fd5b50610643610bb13660046146b8565b6001600160a01b03166000908152600b602052604090205490565b348015610bd857600080fd5b5061064360125481565b348015610bee57600080fd5b5061055d610bfd366004614785565b612c4d565b348015610c0e57600080fd5b50610528610c1d366004614785565b612ebb565b348015610c2e57600080fd5b50610643610c3d3660046146b8565b6001600160a01b03166000908152600e602052604090205490565b348015610c6457600080fd5b5061055d610c7336600461488b565b612f98565b348015610c8457600080fd5b5061055d610c93366004614a28565b612ff3565b348015610ca457600080fd5b50601d546105a1906001600160a01b031681565b348015610cc457600080fd5b50600a54610643565b348015610cd957600080fd5b5061064360135481565b348015610cef57600080fd5b5061055d610cfe366004614740565b613075565b348015610d0f57600080fd5b50610528610d1e3660046147c6565b6001600160a01b03918216600090815260066020908152604080832093909416825291909152205460ff1690565b348015610d5857600080fd5b5061055d613114565b348015610d6d57600080fd5b50601954610528906301000000900460ff1681565b61055d610d90366004614a45565b61317d565b348015610da157600080fd5b5061055d610db03660046146b8565b613547565b348015610dc157600080fd5b50610643610bb881565b348015610dd757600080fd5b5061064360165481565b60007fffffffff0000000000000000000000000000000000000000000000000000000082167f80ac58cd000000000000000000000000000000000000000000000000000000001480610e7457507fffffffff0000000000000000000000000000000000000000000000000000000082167f5b5e139f00000000000000000000000000000000000000000000000000000000145b80610ec057507f01ffc9a7000000000000000000000000000000000000000000000000000000007fffffffff000000000000000000000000000000000000000000000000000000008316145b92915050565b6000546001600160a01b03163314610f135760405162461bcd60e51b81526020600482018190526024820152600080516020614d7183398151915260448201526064015b60405180910390fd5b6020805473ffffffffffffffffffffffffffffffffffffffff19166001600160a01b0392909216919091179055565b606060018054610f5190614af3565b80601f0160208091040260200160405190810160405280929190818152602001828054610f7d90614af3565b8015610fca5780601f10610f9f57610100808354040283529160200191610fca565b820191906000526020600020905b815481529060010190602001808311610fad57829003601f168201915b5050505050905090565b6000818152600360205260408120546001600160a01b031661105e5760405162461bcd60e51b815260206004820152602c60248201527f4552433732313a20617070726f76656420717565727920666f72206e6f6e657860448201527f697374656e7420746f6b656e00000000000000000000000000000000000000006064820152608401610f0a565b506000908152600560205260409020546001600160a01b031690565b6000611085826123fc565b9050806001600160a01b0316836001600160a01b0316141561110f5760405162461bcd60e51b815260206004820152602160248201527f4552433732313a20617070726f76616c20746f2063757272656e74206f776e6560448201527f72000000000000000000000000000000000000000000000000000000000000006064820152608401610f0a565b336001600160a01b038216148061112b575061112b8133610d1e565b61119d5760405162461bcd60e51b815260206004820152603860248201527f4552433732313a20617070726f76652063616c6c6572206973206e6f74206f7760448201527f6e6572206e6f7220617070726f76656420666f7220616c6c00000000000000006064820152608401610f0a565b6111a78383613623565b505050565b6000546001600160a01b031633146111f45760405162461bcd60e51b81526020600482018190526024820152600080516020614d718339815191526044820152606401610f0a565b6019805461ff001981166101009182900460ff1615909102179055565b6000546001600160a01b031633146112595760405162461bcd60e51b81526020600482018190526024820152600080516020614d718339815191526044820152606401610f0a565b601355565b6000546001600160a01b031633146112a65760405162461bcd60e51b81526020600482018190526024820152600080516020614d718339815191526044820152606401610f0a565b601255565b600060016112b860105490565b6112c29190614b44565b905090565b6001600160a01b0381166000908152600b60205260409020546113525760405162461bcd60e51b815260206004820152602660248201527f5061796d656e7453706c69747465723a206163636f756e7420686173206e6f2060448201527f73686172657300000000000000000000000000000000000000000000000000006064820152608401610f0a565b600061135d600a5490565b6113679047614b5b565b90506000611394838361138f866001600160a01b03166000908152600c602052604090205490565b61369e565b9050806114095760405162461bcd60e51b815260206004820152602b60248201527f5061796d656e7453706c69747465723a206163636f756e74206973206e6f742060448201527f647565207061796d656e740000000000000000000000000000000000000000006064820152608401610f0a565b6001600160a01b0383166000908152600c602052604081208054839290611431908490614b5b565b9250508190555080600a600082825461144a9190614b5b565b9091555061145a905083826136dc565b604080516001600160a01b0385168152602081018390527fdf20fd1e76bc69d672e4814fafb2c449bba3a5369d8359adf9e05e6fde87b056910160405180910390a1505050565b602280546114ae90614af3565b80601f01602080910402602001604051908101604052809291908181526020018280546114da90614af3565b80156115275780601f106114fc57610100808354040283529160200191611527565b820191906000526020600020905b81548152906001019060200180831161150a57829003601f168201915b505050505081565b61153933826137f5565b6115ab5760405162461bcd60e51b815260206004820152603160248201527f4552433732313a207472616e736665722063616c6c6572206973206e6f74206f60448201527f776e6572206e6f7220617070726f7665640000000000000000000000000000006064820152608401610f0a565b6111a78383836138f9565b602380546114ae90614af3565b6000546001600160a01b0316331461160b5760405162461bcd60e51b81526020600482018190526024820152600080516020614d718339815191526044820152606401610f0a565b601e546040516001600160a01b03909116904780156108fc02916000818181858888f19350505050158015611644573d6000803e3d6000fd5b50565b6000546001600160a01b0316331461168f5760405162461bcd60e51b81526020600482018190526024820152600080516020614d718339815191526044820152606401610f0a565b6019805460ff19811660ff90911615179055565b6111a783838360405180602001604052806000815250612a28565b60195460ff1615156001146117155760405162461bcd60e51b815260206004820152601260248201527f5075626c6963204d696e7420436c6f73656400000000000000000000000000006044820152606401610f0a565b34816014546117249190614b73565b11156117725760405162461bcd60e51b815260206004820152601560248201527f4e6f7420656e6f7567682065746865722073656e7400000000000000000000006044820152606401610f0a565b600061177d60105490565b90506012548211156117d15760405162461bcd60e51b815260206004820152601560248201527f4d696e7420616d6f756e7420746f6f206c6172676500000000000000000000006044820152606401610f0a565b6018546117de9083614b73565b9150610bb86117ee600183614b44565b6117f89084614b5b565b11156118465760405162461bcd60e51b815260206004820152601b60248201527f4e6f7420656e6f75676820746f6b656e732072656d61696e696e6700000000006044820152606401610f0a565b60005b828110156111a75761185f601080546001019055565b6118723361186d8385614b5b565b613ad3565b8061187c81614b92565b915050611849565b6000546001600160a01b031633146118cc5760405162461bcd60e51b81526020600482018190526024820152600080516020614d718339815191526044820152606401610f0a565b61164481613aed565b6000546001600160a01b0316331461191d5760405162461bcd60e51b81526020600482018190526024820152600080516020614d718339815191526044820152606401610f0a565b601555565b6001600160a01b0381166000908152600b60205260409020546119ad5760405162461bcd60e51b815260206004820152602660248201527f5061796d656e7453706c69747465723a206163636f756e7420686173206e6f2060448201527f73686172657300000000000000000000000000000000000000000000000000006064820152608401610f0a565b6001600160a01b0382166000908152600e60205260408120546040516370a0823160e01b81523060048201526001600160a01b038516906370a0823190602401602060405180830381865afa158015611a0a573d6000803e3d6000fd5b505050506040513d601f19601f82011682018060405250810190611a2e9190614bad565b611a389190614b5b565b90506000611a71838361138f87876001600160a01b039182166000908152600f6020908152604080832093909416825291909152205490565b905080611ae65760405162461bcd60e51b815260206004820152602b60248201527f5061796d656e7453706c69747465723a206163636f756e74206973206e6f742060448201527f647565207061796d656e740000000000000000000000000000000000000000006064820152608401610f0a565b6001600160a01b038085166000908152600f6020908152604080832093871683529290529081208054839290611b1d908490614b5b565b90915550506001600160a01b0384166000908152600e602052604081208054839290611b4a908490614b5b565b90915550611b5b9050848483613af6565b604080516001600160a01b038581168252602082018490528616917f3be5b7a71e84ed12875d241991c70855ac5817d847039e17a9d895c1ceb0f18a910160405180910390a250505050565b6000546001600160a01b03163314611bef5760405162461bcd60e51b81526020600482018190526024820152600080516020614d718339815191526044820152606401610f0a565b601f805473ffffffffffffffffffffffffffffffffffffffff19166001600160a01b0392909216919091179055565b6000546001600160a01b03163314611c665760405162461bcd60e51b81526020600482018190526024820152600080516020614d718339815191526044820152606401610f0a565b8051611c7990601c906020840190614589565b5050565b6000546001600160a01b03163314611cc55760405162461bcd60e51b81526020600482018190526024820152600080516020614d718339815191526044820152606401610f0a565b60026008541415611d185760405162461bcd60e51b815260206004820152601f60248201527f5265656e7472616e637947756172643a207265656e7472616e742063616c6c006044820152606401610f0a565b600260085580611d6a5760405162461bcd60e51b815260206004820152600b60248201527f5a65726f20546f6b656e730000000000000000000000000000000000000000006044820152606401610f0a565b601f546040516370a0823160e01b815230600482015282916001600160a01b0316906370a0823190602401602060405180830381865afa158015611db2573d6000803e3d6000fd5b505050506040513d601f19601f82011682018060405250810190611dd69190614bad565b1015611e245760405162461bcd60e51b815260206004820152601960248201527f4e6f7420656e6f75676820746f6b656e7320746f2073656e64000000000000006044820152606401610f0a565b601f5460405163a9059cbb60e01b81526001600160a01b038481166004830152602482018490529091169063a9059cbb906044016020604051808303816000875af1158015611e77573d6000803e3d6000fd5b505050506040513d601f19601f82011682018060405250810190611e9b9190614bc6565b611ee75760405162461bcd60e51b815260206004820152600f60248201527f7472616e73666572206661696c656400000000000000000000000000000000006044820152606401610f0a565b50506001600855565b6000546001600160a01b03163314611f385760405162461bcd60e51b81526020600482018190526024820152600080516020614d718339815191526044820152606401610f0a565b8051611c7990601a906020840190614589565b6000546001600160a01b03163314611f935760405162461bcd60e51b81526020600482018190526024820152600080516020614d718339815191526044820152606401610f0a565b601980547fffffffffffffffffffffffffffffffffffffffffffffffffffffffffff00ffff8116620100009182900460ff1615909102179055565b601d546001600160a01b0316331461204d5760405162461bcd60e51b8152602060048201526024808201527f546869732066756e6374696f6e20697320666f722043726f73736d696e74206f60448201527f6e6c792e000000000000000000000000000000000000000000000000000000006064820152608401610f0a565b60195462010000900460ff166120a55760405162461bcd60e51b815260206004820152601060248201527f43726f73736d696e7420436c6f736564000000000000000000000000000000006044820152606401610f0a565b34816014546120b49190614b73565b146121015760405162461bcd60e51b815260206004820152601860248201527f496e636f7272656374204554482076616c75652073656e7400000000000000006044820152606401610f0a565b600061210c60105490565b90506012548211156121605760405162461bcd60e51b815260206004820152601560248201527f4d696e7420616d6f756e7420746f6f206c6172676500000000000000000000006044820152606401610f0a565b60185461216d9083614b73565b9150610bb861217d600183614b44565b6121879084614b5b565b11156121d55760405162461bcd60e51b815260206004820152601b60248201527f4e6f7420656e6f75676820746f6b656e732072656d61696e696e6700000000006044820152606401610f0a565b60005b8281101561220e576121ee601080546001019055565b6121fc8461186d8385614b5b565b8061220681614b92565b9150506121d8565b50505050565b6000546001600160a01b0316331461225c5760405162461bcd60e51b81526020600482018190526024820152600080516020614d718339815191526044820152606401610f0a565b601697909755601497909755601294909455601392909255601d80546001600160a01b0390921673ffffffffffffffffffffffffffffffffffffffff19909216919091179055601980549415156101000261ff00199415156201000002949094167fffffffffffffffffffffffffffffffffffffffffffffffffffffffffff0000ff93151563010000000263ff00000019931515939093167fffffffffffffffffffffffffffffffffffffffffffffffffffffffff00ffff0090961695909517919091179190911692909217179055565b6000546001600160a01b031633146123755760405162461bcd60e51b81526020600482018190526024820152600080516020614d718339815191526044820152606401610f0a565b6000811180156123855750600581105b6123f75760405162461bcd60e51b815260206004820152602560248201527f5f6d756c7469706c696572206d7573742062652067726561746572207468616e60448201527f207a65726f0000000000000000000000000000000000000000000000000000006064820152608401610f0a565b601855565b6000818152600360205260408120546001600160a01b031680610ec05760405162461bcd60e51b815260206004820152602960248201527f4552433732313a206f776e657220717565727920666f72206e6f6e657869737460448201527f656e7420746f6b656e00000000000000000000000000000000000000000000006064820152608401610f0a565b6000546001600160a01b031633146124cf5760405162461bcd60e51b81526020600482018190526024820152600080516020614d718339815191526044820152606401610f0a565b601455565b60006001600160a01b0382166125525760405162461bcd60e51b815260206004820152602a60248201527f4552433732313a2062616c616e636520717565727920666f7220746865207a6560448201527f726f2061646472657373000000000000000000000000000000000000000000006064820152608401610f0a565b506001600160a01b031660009081526004602052604090205490565b6000546001600160a01b031633146125b65760405162461bcd60e51b81526020600482018190526024820152600080516020614d718339815191526044820152606401610f0a565b6125c06000613b5d565b565b6000546001600160a01b0316331461260a5760405162461bcd60e51b81526020600482018190526024820152600080516020614d718339815191526044820152606401610f0a565b601e805473ffffffffffffffffffffffffffffffffffffffff19166001600160a01b0392909216919091179055565b6000600d828154811061264e5761264e614be3565b6000918252602090912001546001600160a01b031692915050565b606060028054610f5190614af3565b601954610100900460ff166126cf5760405162461bcd60e51b815260206004820152601b60248201527f43616e2774206d696e74207769746820455243323020746f6b656e00000000006044820152606401610f0a565b601f546040517fdd62ed3e0000000000000000000000000000000000000000000000000000000081523360048201523060248201526001600160a01b039091169063dd62ed3e90604401602060405180830381865afa158015612736573d6000803e3d6000fd5b505050506040513d601f19601f8201168201806040525081019061275a9190614bad565b816015546127689190614b73565b11156127b65760405162461bcd60e51b815260206004820152601960248201527f4e6f7420656e6f75676820617070726f766564204552433230000000000000006044820152606401610f0a565b60006127c160105490565b90506012548211156128155760405162461bcd60e51b815260206004820152601560248201527f4d696e7420616d6f756e7420746f6f206c6172676500000000000000000000006044820152606401610f0a565b6018546128229083614b73565b60195490925060ff16151560011461287c5760405162461bcd60e51b815260206004820152601260248201527f5075626c6963204d696e7420436c6f73656400000000000000000000000000006044820152606401610f0a565b610bb861288a600183614b44565b6128949084614b5b565b11156128e25760405162461bcd60e51b815260206004820152601b60248201527f4e6f7420656e6f75676820746f6b656e732072656d61696e696e6700000000006044820152606401610f0a565b60005b828110156111a7576128fb601080546001019055565b6129093361186d8385614b5b565b8061291381614b92565b9150506128e5565b611c79338383613bba565b601c80546114ae90614af3565b6000546001600160a01b0316331461297b5760405162461bcd60e51b81526020600482018190526024820152600080516020614d718339815191526044820152606401610f0a565b600061298660105490565b9050610bb882612997600184614b44565b6129a19190614b5b565b11156129ef5760405162461bcd60e51b815260206004820152601b60248201527f4e6f7420656e6f75676820746f6b656e732072656d61696e696e6700000000006044820152606401610f0a565b60005b8281101561220e57612a08601080546001019055565b612a168461186d8385614b5b565b80612a2081614b92565b9150506129f2565b612a3233836137f5565b612aa45760405162461bcd60e51b815260206004820152603160248201527f4552433732313a207472616e736665722063616c6c6572206973206e6f74206f60448201527f776e6572206e6f7220617070726f7665640000000000000000000000000000006064820152608401610f0a565b61220e84848484613c89565b601b80546114ae90614af3565b6000818152600360205260409020546060906001600160a01b0316612b4a5760405162461bcd60e51b815260206004820152602f60248201527f4552433732314d657461646174613a2055524920717565727920666f72206e6f60448201527f6e6578697374656e7420746f6b656e00000000000000000000000000000000006064820152608401610f0a565b601954640100000000900460ff16612bee57601c8054612b6990614af3565b80601f0160208091040260200160405190810160405280929190818152602001828054612b9590614af3565b8015612be25780601f10612bb757610100808354040283529160200191612be2565b820191906000526020600020905b815481529060010190602001808311612bc557829003601f168201915b50505050509050919050565b6000612bf8613d12565b90506000815111612c185760405180602001604052806000815250612c46565b80612c2284613d21565b601b604051602001612c3693929190614bf9565b6040516020818303038152906040525b9392505050565b6000546001600160a01b03163314612c955760405162461bcd60e51b81526020600482018190526024820152600080516020614d718339815191526044820152606401610f0a565b60026008541415612ce85760405162461bcd60e51b815260206004820152601f60248201527f5265656e7472616e637947756172643a207265656e7472616e742063616c6c006044820152606401610f0a565b600260085580612d3a5760405162461bcd60e51b815260206004820152600b60248201527f5a65726f20546f6b656e730000000000000000000000000000000000000000006044820152606401610f0a565b6040516370a0823160e01b815230600482015281906001600160a01b038516906370a0823190602401602060405180830381865afa158015612d80573d6000803e3d6000fd5b505050506040513d601f19601f82011682018060405250810190612da49190614bad565b1015612df25760405162461bcd60e51b815260206004820152601960248201527f4e6f7420656e6f75676820746f6b656e7320746f2073656e64000000000000006044820152606401610f0a565b60405163a9059cbb60e01b81526001600160a01b0383811660048301526024820183905284169063a9059cbb906044016020604051808303816000875af1158015612e41573d6000803e3d6000fd5b505050506040513d601f19601f82011682018060405250810190612e659190614bc6565b612eb15760405162461bcd60e51b815260206004820152601060248201527f7472616e73666572206661696c656421000000000000000000000000000000006044820152606401610f0a565b5050600160085550565b600080546001600160a01b03163314612f045760405162461bcd60e51b81526020600482018190526024820152600080516020614d718339815191526044820152606401610f0a565b6040517f095ea7b30000000000000000000000000000000000000000000000000000000081526001600160a01b0384811660048301526024820184905285169063095ea7b3906044016020604051808303816000875af1158015612f6c573d6000803e3d6000fd5b505050506040513d601f19601f82011682018060405250810190612f909190614bc6565b949350505050565b6000546001600160a01b03163314612fe05760405162461bcd60e51b81526020600482018190526024820152600080516020614d718339815191526044820152606401610f0a565b8051611c7990601b906020840190614589565b6000546001600160a01b0316331461303b5760405162461bcd60e51b81526020600482018190526024820152600080516020614d718339815191526044820152606401610f0a565b60198054911515640100000000027fffffffffffffffffffffffffffffffffffffffffffffffffffffff00ffffffff909216919091179055565b6000546001600160a01b031633146130bd5760405162461bcd60e51b81526020600482018190526024820152600080516020614d718339815191526044820152606401610f0a565b610bb881111561310f5760405162461bcd60e51b815260206004820152601a60248201527f46726565206d696e7420616d6f756e7420746f6f206c617267650000000000006044820152606401610f0a565b601755565b6000546001600160a01b0316331461315c5760405162461bcd60e51b81526020600482018190526024820152600080516020614d718339815191526044820152606401610f0a565b6019805463ff00000019811663010000009182900460ff1615909102179055565b8181600082336040516020016131a69291909182526001600160a01b0316602082015260400190565b6040516020818303038152906040528051906020012090506131c88183613e53565b6132145760405162461bcd60e51b815260206004820152600c60248201527f496e76616c6964205061737300000000000000000000000000000000000000006044820152606401610f0a565b34866016546132239190614b73565b11156132715760405162461bcd60e51b815260206004820152601560248201527f4e6f7420656e6f7567682065746865722073656e7400000000000000000000006044820152606401610f0a565b600061327c60105490565b90506018548761328c9190614b73565b6019549097506301000000900460ff1615156001146132ed5760405162461bcd60e51b815260206004820152601160248201527f436c61696d204d696e7420436c6f7365640000000000000000000000000000006044820152606401610f0a565b610bb86132fb600183614b44565b6133059089614b5b565b11156133535760405162461bcd60e51b815260206004820152601b60248201527f4e6f7420656e6f75676820746f6b656e732072656d61696e696e6700000000006044820152606401610f0a565b858711156133c95760405162461bcd60e51b815260206004820152602d60248201527f4d696e74207175616e746974792063616e27742062652067726561746572207460448201527f68616e20636c61696d61626c65000000000000000000000000000000000000006064820152608401610f0a565b6000871161343f5760405162461bcd60e51b815260206004820152602760248201527f4d696e74207175616e74697479206d757374206265206772656174657220746860448201527f616e207a65726f000000000000000000000000000000000000000000000000006064820152608401610f0a565b6013548711156134915760405162461bcd60e51b815260206004820152601760248201527f4d696e74207175616e7469747920746f6f206c617267650000000000000000006044820152606401610f0a565b6017548761349e60115490565b6134a89190614b5b565b11156134f65760405162461bcd60e51b815260206004820152601f60248201527f4e6f7420656e6f7567682066726565206d696e74732072656d61696e696e67006044820152606401610f0a565b60005b8781101561353d5761350f601080546001019055565b61351d601180546001019055565b61352b3361186d8385614b5b565b8061353581614b92565b9150506134f9565b5050505050505050565b6000546001600160a01b0316331461358f5760405162461bcd60e51b81526020600482018190526024820152600080516020614d718339815191526044820152606401610f0a565b6001600160a01b03811661360b5760405162461bcd60e51b815260206004820152602660248201527f4f776e61626c653a206e6577206f776e657220697320746865207a65726f206160448201527f64647265737300000000000000000000000000000000000000000000000000006064820152608401610f0a565b61164481613b5d565b80546001019055565b3b151590565b6000818152600560205260409020805473ffffffffffffffffffffffffffffffffffffffff19166001600160a01b0384169081179091558190613665826123fc565b6001600160a01b03167f8c5be1e5ebec7d5bd14f71427d1e84f3dd0314c0f7b2291e5b200ac8c7c3b92560405160405180910390a45050565b6009546001600160a01b0384166000908152600b6020526040812054909183916136c89086614b73565b6136d29190614cd3565b612f909190614b44565b8047101561372c5760405162461bcd60e51b815260206004820152601d60248201527f416464726573733a20696e73756666696369656e742062616c616e63650000006044820152606401610f0a565b6000826001600160a01b03168260405160006040518083038185875af1925050503d8060008114613779576040519150601f19603f3d011682016040523d82523d6000602084013e61377e565b606091505b50509050806111a75760405162461bcd60e51b815260206004820152603a60248201527f416464726573733a20756e61626c6520746f2073656e642076616c75652c207260448201527f6563697069656e74206d617920686176652072657665727465640000000000006064820152608401610f0a565b6000818152600360205260408120546001600160a01b031661387f5760405162461bcd60e51b815260206004820152602c60248201527f4552433732313a206f70657261746f7220717565727920666f72206e6f6e657860448201527f697374656e7420746f6b656e00000000000000000000000000000000000000006064820152608401610f0a565b600061388a836123fc565b9050806001600160a01b0316846001600160a01b031614806138c55750836001600160a01b03166138ba84610fd4565b6001600160a01b0316145b80612f9057506001600160a01b0380821660009081526006602090815260408083209388168352929052205460ff16612f90565b826001600160a01b031661390c826123fc565b6001600160a01b0316146139885760405162461bcd60e51b815260206004820152602960248201527f4552433732313a207472616e73666572206f6620746f6b656e2074686174206960448201527f73206e6f74206f776e00000000000000000000000000000000000000000000006064820152608401610f0a565b6001600160a01b038216613a035760405162461bcd60e51b8152602060048201526024808201527f4552433732313a207472616e7366657220746f20746865207a65726f2061646460448201527f72657373000000000000000000000000000000000000000000000000000000006064820152608401610f0a565b613a0e600082613623565b6001600160a01b0383166000908152600460205260408120805460019290613a37908490614b44565b90915550506001600160a01b0382166000908152600460205260408120805460019290613a65908490614b5b565b9091555050600081815260036020526040808220805473ffffffffffffffffffffffffffffffffffffffff19166001600160a01b0386811691821790925591518493918716917fddf252ad1be2c89b69c2b068fc378daa952ba7f163c4a11628f55a4df523b3ef91a4505050565b611c79828260405180602001604052806000815250613f3b565b61164481613fc4565b604080516001600160a01b038416602482015260448082018490528251808303909101815260649091019091526020810180517bffffffffffffffffffffffffffffffffffffffffffffffffffffffff1663a9059cbb60e01b1790526111a7908490614004565b600080546001600160a01b0383811673ffffffffffffffffffffffffffffffffffffffff19831681178455604051919092169283917f8be0079c531659141344cd1fd0a4f28419497f9722a3daafe3b4186f6b6457e09190a35050565b816001600160a01b0316836001600160a01b03161415613c1c5760405162461bcd60e51b815260206004820152601960248201527f4552433732313a20617070726f766520746f2063616c6c6572000000000000006044820152606401610f0a565b6001600160a01b03838116600081815260066020908152604080832094871680845294825291829020805460ff191686151590811790915591519182527f17307eab39ab6107e8899845ad3d59bd9653f200f220920489ca2b5937696c31910160405180910390a3505050565b613c948484846138f9565b613ca0848484846140e9565b61220e5760405162461bcd60e51b815260206004820152603260248201527f4552433732313a207472616e7366657220746f206e6f6e20455243373231526560448201527f63656976657220696d706c656d656e74657200000000000000000000000000006064820152608401610f0a565b6060601a8054610f5190614af3565b606081613d6157505060408051808201909152600181527f3000000000000000000000000000000000000000000000000000000000000000602082015290565b8160005b8115613d8b5780613d7581614b92565b9150613d849050600a83614cd3565b9150613d65565b60008167ffffffffffffffff811115613da657613da66147ff565b6040519080825280601f01601f191660200182016040528015613dd0576020820181803683370190505b5090505b8415612f9057613de5600183614b44565b9150613df2600a86614ce7565b613dfd906030614b5b565b60f81b818381518110613e1257613e12614be3565b60200101907effffffffffffffffffffffffffffffffffffffffffffffffffffffffffffff1916908160001a905350613e4c600a86614cd3565b9450613dd4565b60008060018484604001518560000151866020015160405160008152602001604052604051613e9e949392919093845260ff9290921660208401526040830152606082015260800190565b6020604051602081039080840390855afa158015613ec0573d6000803e3d6000fd5b5050604051601f1901519150506001600160a01b038116613f235760405162461bcd60e51b815260206004820152601860248201527f45434453413a20696e76616c6964207369676e617475726500000000000000006044820152606401610f0a565b6020546001600160a01b039081169116149392505050565b613f458383614287565b613f5260008484846140e9565b6111a75760405162461bcd60e51b815260206004820152603260248201527f4552433732313a207472616e7366657220746f206e6f6e20455243373231526560448201527f63656976657220696d706c656d656e74657200000000000000000000000000006064820152608401610f0a565b613fcd816143d6565b60008181526007602052604090208054613fe690614af3565b1590506116445760008181526007602052604081206116449161460d565b6000614059826040518060400160405280602081526020017f5361666545524332303a206c6f772d6c6576656c2063616c6c206661696c6564815250856001600160a01b031661447e9092919063ffffffff16565b8051909150156111a757808060200190518101906140779190614bc6565b6111a75760405162461bcd60e51b815260206004820152602a60248201527f5361666545524332303a204552433230206f7065726174696f6e20646964206e60448201527f6f742073756363656564000000000000000000000000000000000000000000006064820152608401610f0a565b60006001600160a01b0384163b1561427c576040517f150b7a020000000000000000000000000000000000000000000000000000000081526001600160a01b0385169063150b7a0290614146903390899088908890600401614cfb565b6020604051808303816000875af1925050508015614181575060408051601f3d908101601f1916820190925261417e91810190614d37565b60015b614231573d8080156141af576040519150601f19603f3d011682016040523d82523d6000602084013e6141b4565b606091505b5080516142295760405162461bcd60e51b815260206004820152603260248201527f4552433732313a207472616e7366657220746f206e6f6e20455243373231526560448201527f63656976657220696d706c656d656e74657200000000000000000000000000006064820152608401610f0a565b805181602001fd5b7fffffffff00000000000000000000000000000000000000000000000000000000167f150b7a0200000000000000000000000000000000000000000000000000000000149050612f90565b506001949350505050565b6001600160a01b0382166142dd5760405162461bcd60e51b815260206004820181905260248201527f4552433732313a206d696e7420746f20746865207a65726f20616464726573736044820152606401610f0a565b6000818152600360205260409020546001600160a01b0316156143425760405162461bcd60e51b815260206004820152601c60248201527f4552433732313a20746f6b656e20616c7265616479206d696e746564000000006044820152606401610f0a565b6001600160a01b038216600090815260046020526040812080546001929061436b908490614b5b565b9091555050600081815260036020526040808220805473ffffffffffffffffffffffffffffffffffffffff19166001600160a01b03861690811790915590518392907fddf252ad1be2c89b69c2b068fc378daa952ba7f163c4a11628f55a4df523b3ef908290a45050565b60006143e1826123fc565b90506143ee600083613623565b6001600160a01b0381166000908152600460205260408120805460019290614417908490614b44565b9091555050600082815260036020526040808220805473ffffffffffffffffffffffffffffffffffffffff19169055518391906001600160a01b038416907fddf252ad1be2c89b69c2b068fc378daa952ba7f163c4a11628f55a4df523b3ef908390a45050565b6060612f90848460008585843b6144d75760405162461bcd60e51b815260206004820152601d60248201527f416464726573733a2063616c6c20746f206e6f6e2d636f6e74726163740000006044820152606401610f0a565b600080866001600160a01b031685876040516144f39190614d54565b60006040518083038185875af1925050503d8060008114614530576040519150601f19603f3d011682016040523d82523d6000602084013e614535565b606091505b5091509150614545828286614550565b979650505050505050565b6060831561455f575081612c46565b82511561456f5782518084602001fd5b8160405162461bcd60e51b8152600401610f0a919061472d565b82805461459590614af3565b90600052602060002090601f0160209004810192826145b757600085556145fd565b82601f106145d057805160ff19168380011785556145fd565b828001600101855582156145fd579182015b828111156145fd5782518255916020019190600101906145e2565b50614609929150614643565b5090565b50805461461990614af3565b6000825580601f10614629575050565b601f01602090049060005260206000209081019061164491905b5b808211156146095760008155600101614644565b7fffffffff000000000000000000000000000000000000000000000000000000008116811461164457600080fd5b60006020828403121561469857600080fd5b8135612c4681614658565b6001600160a01b038116811461164457600080fd5b6000602082840312156146ca57600080fd5b8135612c46816146a3565b60005b838110156146f05781810151838201526020016146d8565b8381111561220e5750506000910152565b600081518084526147198160208601602086016146d5565b601f01601f19169290920160200192915050565b602081526000612c466020830184614701565b60006020828403121561475257600080fd5b5035919050565b6000806040838503121561476c57600080fd5b8235614777816146a3565b946020939093013593505050565b60008060006060848603121561479a57600080fd5b83356147a5816146a3565b925060208401356147b5816146a3565b929592945050506040919091013590565b600080604083850312156147d957600080fd5b82356147e4816146a3565b915060208301356147f4816146a3565b809150509250929050565b634e487b7160e01b600052604160045260246000fd5b600067ffffffffffffffff80841115614830576148306147ff565b604051601f8501601f19908116603f01168101908282118183101715614858576148586147ff565b8160405280935085815286868601111561487157600080fd5b858560208301376000602087830101525050509392505050565b60006020828403121561489d57600080fd5b813567ffffffffffffffff8111156148b457600080fd5b8201601f810184136148c557600080fd5b612f9084823560208401614815565b801515811461164457600080fd5b60008060008060008060008060006101208a8c03121561490157600080fd5b8935985060208a0135975060408a0135965060608a0135955060808a0135614928816146a3565b945060a08a0135614938816148d4565b935060c08a0135614948816148d4565b925060e08a0135614958816148d4565b91506101008a0135614969816148d4565b809150509295985092959850929598565b6000806040838503121561498d57600080fd5b8235614998816146a3565b915060208301356147f4816148d4565b600080600080608085870312156149be57600080fd5b84356149c9816146a3565b935060208501356149d9816146a3565b925060408501359150606085013567ffffffffffffffff8111156149fc57600080fd5b8501601f81018713614a0d57600080fd5b614a1c87823560208401614815565b91505092959194509250565b600060208284031215614a3a57600080fd5b8135612c46816148d4565b600080600083850360a0811215614a5b57600080fd5b843593506020850135925060607fffffffffffffffffffffffffffffffffffffffffffffffffffffffffffffffc082011215614a9657600080fd5b506040516060810181811067ffffffffffffffff82111715614aba57614aba6147ff565b6040908152850135815260608501356020820152608085013560ff81168114614ae257600080fd5b604082015292959194509192509050565b600181811c90821680614b0757607f821691505b60208210811415614b2857634e487b7160e01b600052602260045260246000fd5b50919050565b634e487b7160e01b600052601160045260246000fd5b600082821015614b5657614b56614b2e565b500390565b60008219821115614b6e57614b6e614b2e565b500190565b6000816000190483118215151615614b8d57614b8d614b2e565b500290565b6000600019821415614ba657614ba6614b2e565b5060010190565b600060208284031215614bbf57600080fd5b5051919050565b600060208284031215614bd857600080fd5b8151612c46816148d4565b634e487b7160e01b600052603260045260246000fd5b600084516020614c0c8285838a016146d5565b855191840191614c1f8184848a016146d5565b8554920191600090600181811c9080831680614c3c57607f831692505b858310811415614c5a57634e487b7160e01b85526022600452602485fd5b808015614c6e5760018114614c7f57614cac565b60ff19851688528388019550614cac565b60008b81526020902060005b85811015614ca45781548a820152908401908801614c8b565b505083880195505b50939b9a5050505050505050505050565b634e487b7160e01b600052601260045260246000fd5b600082614ce257614ce2614cbd565b500490565b600082614cf657614cf6614cbd565b500690565b60006001600160a01b03808716835280861660208401525083604083015260806060830152614d2d6080830184614701565b9695505050505050565b600060208284031215614d4957600080fd5b8151612c4681614658565b60008251614d668184602087016146d5565b919091019291505056fe4f776e61626c653a2063616c6c6572206973206e6f7420746865206f776e6572a264697066735822122037f6bb81bdcea46a80318c6a0c3e873cb9c17e8267747f74c5aeccedb4cea03864736f6c634300080b00334552433732313a207472616e7366657220746f206e6f6e204552433732315265",
  "linkReferences": {},
  "deployedLinkReferences": {}
}