{
  "_format": "hh-sol-artifact-1",
  "contractName": "IGLSkybox",
  "sourceName": "contracts/IGLSkybox.sol",
  "abi": [
    {
      "inputs": [
        {
          "internalType": "string",
          "name": "contractName",
          "type": "string"
        },
        {
          "internalType": "string",
          "name": "contractSymbol",
          "type": "string"
        },
        {
          "internalType": "address",
          "name": "_erc20token",
          "type": "address"
        },
        {
          "internalType": "address",
          "name": "_vault",
          "type": "address"
        },
        {
          "internalType": "address",
          "name": "_signer",
          "type": "address"
        },
        {
          "internalType": "string",
          "name": "__baseTokenURI",
          "type": "string"
        },
        {
          "internalType": "string",
          "name": "_hiddenMetadataUri",
          "type": "string"
        },
        {
          "internalType": "address[]",
          "name": "_payees",
          "type": "address[]"
        },
        {
          "internalType": "uint256[]",
          "name": "_shares",
          "type": "uint256[]"
        }
      ],
      "stateMutability": "payable",
      "type": "constructor"
    },
    {
      "anonymous": false,
      "inputs": [
        {
          "indexed": true,
          "internalType": "address",
          "name": "owner",
          "type": "address"
        },
        {
          "indexed": true,
          "internalType": "address",
          "name": "approved",
          "type": "address"
        },
        {
          "indexed": true,
          "internalType": "uint256",
          "name": "tokenId",
          "type": "uint256"
        }
      ],
      "name": "Approval",
      "type": "event"
    },
    {
      "anonymous": false,
      "inputs": [
        {
          "indexed": true,
          "internalType": "address",
          "name": "owner",
          "type": "address"
        },
        {
          "indexed": true,
          "internalType": "address",
          "name": "operator",
          "type": "address"
        },
        {
          "indexed": false,
          "internalType": "bool",
          "name": "approved",
          "type": "bool"
        }
      ],
      "name": "ApprovalForAll",
      "type": "event"
    },
    {
      "anonymous": false,
      "inputs": [
        {
          "indexed": true,
          "internalType": "contract IERC20",
          "name": "token",
          "type": "address"
        },
        {
          "indexed": false,
          "internalType": "address",
          "name": "to",
          "type": "address"
        },
        {
          "indexed": false,
          "internalType": "uint256",
          "name": "amount",
          "type": "uint256"
        }
      ],
      "name": "ERC20PaymentReleased",
      "type": "event"
    },
    {
      "anonymous": false,
      "inputs": [
        {
          "indexed": true,
          "internalType": "address",
          "name": "previousOwner",
          "type": "address"
        },
        {
          "indexed": true,
          "internalType": "address",
          "name": "newOwner",
          "type": "address"
        }
      ],
      "name": "OwnershipTransferred",
      "type": "event"
    },
    {
      "anonymous": false,
      "inputs": [
        {
          "indexed": false,
          "internalType": "address",
          "name": "account",
          "type": "address"
        },
        {
          "indexed": false,
          "internalType": "uint256",
          "name": "shares",
          "type": "uint256"
        }
      ],
      "name": "PayeeAdded",
      "type": "event"
    },
    {
      "anonymous": false,
      "inputs": [
        {
          "indexed": false,
          "internalType": "address",
          "name": "from",
          "type": "address"
        },
        {
          "indexed": false,
          "internalType": "uint256",
          "name": "amount",
          "type": "uint256"
        }
      ],
      "name": "PaymentReceived",
      "type": "event"
    },
    {
      "anonymous": false,
      "inputs": [
        {
          "indexed": false,
          "internalType": "address",
          "name": "to",
          "type": "address"
        },
        {
          "indexed": false,
          "internalType": "uint256",
          "name": "amount",
          "type": "uint256"
        }
      ],
      "name": "PaymentReleased",
      "type": "event"
    },
    {
      "anonymous": false,
      "inputs": [
        {
          "indexed": true,
          "internalType": "address",
          "name": "from",
          "type": "address"
        },
        {
          "indexed": true,
          "internalType": "address",
          "name": "to",
          "type": "address"
        },
        {
          "indexed": true,
          "internalType": "uint256",
          "name": "tokenId",
          "type": "uint256"
        }
      ],
      "name": "Transfer",
      "type": "event"
    },
    {
      "inputs": [],
      "name": "Author",
      "outputs": [
        {
          "internalType": "string",
          "name": "",
          "type": "string"
        }
      ],
      "stateMutability": "view",
      "type": "function"
    },
    {
      "inputs": [],
      "name": "MAX_TOKENS",
      "outputs": [
        {
          "internalType": "uint256",
          "name": "",
          "type": "uint256"
        }
      ],
      "stateMutability": "view",
      "type": "function"
    },
    {
      "inputs": [],
      "name": "ProjectTeam",
      "outputs": [
        {
          "internalType": "string",
          "name": "",
          "type": "string"
        }
      ],
      "stateMutability": "view",
      "type": "function"
    },
    {
      "inputs": [
        {
          "internalType": "address",
          "name": "to",
          "type": "address"
        },
        {
          "internalType": "uint256",
          "name": "tokenId",
          "type": "uint256"
        }
      ],
      "name": "approve",
      "outputs": [],
      "stateMutability": "nonpayable",
      "type": "function"
    },
    {
      "inputs": [
        {
          "internalType": "address",
          "name": "sourceAddress",
          "type": "address"
        },
        {
          "internalType": "address",
          "name": "contractAddy",
          "type": "address"
        },
        {
          "internalType": "uint256",
          "name": "amount",
          "type": "uint256"
        }
      ],
      "name": "approveContract",
      "outputs": [
        {
          "internalType": "bool",
          "name": "approved",
          "type": "bool"
        }
      ],
      "stateMutability": "nonpayable",
      "type": "function"
    },
    {
      "inputs": [
        {
          "internalType": "address",
          "name": "owner",
          "type": "address"
        }
      ],
      "name": "balanceOf",
      "outputs": [
        {
          "internalType": "uint256",
          "name": "",
          "type": "uint256"
        }
      ],
      "stateMutability": "view",
      "type": "function"
    },
    {
      "inputs": [],
      "name": "baseExtension",
      "outputs": [
        {
          "internalType": "string",
          "name": "",
          "type": "string"
        }
      ],
      "stateMutability": "view",
      "type": "function"
    },
    {
      "inputs": [
        {
          "internalType": "uint256",
          "name": "tokenId",
          "type": "uint256"
        }
      ],
      "name": "burn",
      "outputs": [],
      "stateMutability": "nonpayable",
      "type": "function"
    },
    {
      "inputs": [],
      "name": "buyBonusMultiplier",
      "outputs": [
        {
          "internalType": "uint256",
          "name": "",
          "type": "uint256"
        }
      ],
      "stateMutability": "view",
      "type": "function"
    },
    {
      "inputs": [],
      "name": "erc20Token",
      "outputs": [
        {
          "internalType": "address",
          "name": "",
          "type": "address"
        }
      ],
      "stateMutability": "view",
      "type": "function"
    },
    {
      "inputs": [],
      "name": "erc20TokenPrice",
      "outputs": [
        {
          "internalType": "uint256",
          "name": "",
          "type": "uint256"
        }
      ],
      "stateMutability": "view",
      "type": "function"
    },
    {
      "inputs": [
        {
          "internalType": "uint256",
          "name": "tokenId",
          "type": "uint256"
        }
      ],
      "name": "getApproved",
      "outputs": [
        {
          "internalType": "address",
          "name": "",
          "type": "address"
        }
      ],
      "stateMutability": "view",
      "type": "function"
    },
    {
      "inputs": [],
      "name": "hiddenMetadataUri",
      "outputs": [
        {
          "internalType": "string",
          "name": "",
          "type": "string"
        }
      ],
      "stateMutability": "view",
      "type": "function"
    },
    {
      "inputs": [
        {
          "internalType": "address",
          "name": "owner",
          "type": "address"
        },
        {
          "internalType": "address",
          "name": "operator",
          "type": "address"
        }
      ],
      "name": "isApprovedForAll",
      "outputs": [
        {
          "internalType": "bool",
          "name": "",
          "type": "bool"
        }
      ],
      "stateMutability": "view",
      "type": "function"
    },
    {
      "inputs": [],
      "name": "maxWhitelistPassMints",
      "outputs": [
        {
          "internalType": "uint256",
          "name": "",
          "type": "uint256"
        }
      ],
      "stateMutability": "view",
      "type": "function"
    },
    {
      "inputs": [],
      "name": "name",
      "outputs": [
        {
          "internalType": "string",
          "name": "",
          "type": "string"
        }
      ],
      "stateMutability": "view",
      "type": "function"
    },
    {
      "inputs": [
        {
          "internalType": "uint256",
          "name": "quantity",
          "type": "uint256"
        }
      ],
      "name": "openMint",
      "outputs": [],
      "stateMutability": "payable",
      "type": "function"
    },
    {
      "inputs": [
        {
          "internalType": "uint256",
          "name": "quantity",
          "type": "uint256"
        }
      ],
      "name": "openMintWithERC",
      "outputs": [],
      "stateMutability": "nonpayable",
      "type": "function"
    },
    {
      "inputs": [],
      "name": "owner",
      "outputs": [
        {
          "internalType": "address",
          "name": "",
          "type": "address"
        }
      ],
      "stateMutability": "view",
      "type": "function"
    },
    {
      "inputs": [
        {
          "internalType": "uint256",
          "name": "tokenId",
          "type": "uint256"
        }
      ],
      "name": "ownerOf",
      "outputs": [
        {
          "internalType": "address",
          "name": "",
          "type": "address"
        }
      ],
      "stateMutability": "view",
      "type": "function"
    },
    {
      "inputs": [
        {
          "internalType": "uint256",
          "name": "index",
          "type": "uint256"
        }
      ],
      "name": "payee",
      "outputs": [
        {
          "internalType": "address",
          "name": "",
          "type": "address"
        }
      ],
      "stateMutability": "view",
      "type": "function"
    },
    {
      "inputs": [],
      "name": "privateMintIsOpen",
      "outputs": [
        {
          "internalType": "bool",
          "name": "",
          "type": "bool"
        }
      ],
      "stateMutability": "view",
      "type": "function"
    },
    {
      "inputs": [],
      "name": "publicERC20MintIsOpen",
      "outputs": [
        {
          "internalType": "bool",
          "name": "",
          "type": "bool"
        }
      ],
      "stateMutability": "view",
      "type": "function"
    },
    {
      "inputs": [],
      "name": "publicMintIsOpen",
      "outputs": [
        {
          "internalType": "bool",
          "name": "",
          "type": "bool"
        }
      ],
      "stateMutability": "view",
      "type": "function"
    },
    {
      "inputs": [],
      "name": "publicMintMaxLimit",
      "outputs": [
        {
          "internalType": "uint256",
          "name": "",
          "type": "uint256"
        }
      ],
      "stateMutability": "view",
      "type": "function"
    },
    {
      "inputs": [
        {
          "internalType": "address payable",
          "name": "account",
          "type": "address"
        }
      ],
      "name": "release",
      "outputs": [],
      "stateMutability": "nonpayable",
      "type": "function"
    },
    {
      "inputs": [
        {
          "internalType": "contract IERC20",
          "name": "token",
          "type": "address"
        },
        {
          "internalType": "address",
          "name": "account",
          "type": "address"
        }
      ],
      "name": "release",
      "outputs": [],
      "stateMutability": "nonpayable",
      "type": "function"
    },
    {
      "inputs": [
        {
          "internalType": "contract IERC20",
          "name": "token",
          "type": "address"
        },
        {
          "internalType": "address",
          "name": "account",
          "type": "address"
        }
      ],
      "name": "released",
      "outputs": [
        {
          "internalType": "uint256",
          "name": "",
          "type": "uint256"
        }
      ],
      "stateMutability": "view",
      "type": "function"
    },
    {
      "inputs": [
        {
          "internalType": "address",
          "name": "account",
          "type": "address"
        }
      ],
      "name": "released",
      "outputs": [
        {
          "internalType": "uint256",
          "name": "",
          "type": "uint256"
        }
      ],
      "stateMutability": "view",
      "type": "function"
    },
    {
      "inputs": [],
      "name": "renounceOwnership",
      "outputs": [],
      "stateMutability": "nonpayable",
      "type": "function"
    },
    {
      "inputs": [],
      "name": "revealed",
      "outputs": [
        {
          "internalType": "bool",
          "name": "",
          "type": "bool"
        }
      ],
      "stateMutability": "view",
      "type": "function"
    },
    {
      "inputs": [
        {
          "internalType": "address",
          "name": "from",
          "type": "address"
        },
        {
          "internalType": "address",
          "name": "to",
          "type": "address"
        },
        {
          "internalType": "uint256",
          "name": "tokenId",
          "type": "uint256"
        }
      ],
      "name": "safeTransferFrom",
      "outputs": [],
      "stateMutability": "nonpayable",
      "type": "function"
    },
    {
      "inputs": [
        {
          "internalType": "address",
          "name": "from",
          "type": "address"
        },
        {
          "internalType": "address",
          "name": "to",
          "type": "address"
        },
        {
          "internalType": "uint256",
          "name": "tokenId",
          "type": "uint256"
        },
        {
          "internalType": "bytes",
          "name": "_data",
          "type": "bytes"
        }
      ],
      "name": "safeTransferFrom",
      "outputs": [],
      "stateMutability": "nonpayable",
      "type": "function"
    },
    {
      "inputs": [
        {
          "internalType": "address",
          "name": "operator",
          "type": "address"
        },
        {
          "internalType": "bool",
          "name": "approved",
          "type": "bool"
        }
      ],
      "name": "setApprovalForAll",
      "outputs": [],
      "stateMutability": "nonpayable",
      "type": "function"
    },
    {
      "inputs": [
        {
          "internalType": "string",
          "name": "_baseExtension",
          "type": "string"
        }
      ],
      "name": "setBaseExtension",
      "outputs": [],
      "stateMutability": "nonpayable",
      "type": "function"
    },
    {
      "inputs": [
        {
          "internalType": "string",
          "name": "newBaseURI",
          "type": "string"
        }
      ],
      "name": "setBaseURI",
      "outputs": [],
      "stateMutability": "nonpayable",
      "type": "function"
    },
    {
      "inputs": [
        {
          "internalType": "uint256",
          "name": "amount",
          "type": "uint256"
        }
      ],
      "name": "setFreeMints",
      "outputs": [],
      "stateMutability": "nonpayable",
      "type": "function"
    },
    {
      "inputs": [
        {
          "internalType": "string",
          "name": "_hiddenMetadataUri",
          "type": "string"
        }
      ],
      "name": "setHiddenMetadataUri",
      "outputs": [],
      "stateMutability": "nonpayable",
      "type": "function"
    },
    {
      "inputs": [
        {
          "internalType": "uint256",
          "name": "newPrice",
          "type": "uint256"
        },
        {
          "internalType": "uint256",
          "name": "newWhitelistTokenPrice",
          "type": "uint256"
        },
        {
          "internalType": "uint256",
          "name": "setOpenMintLimit",
          "type": "uint256"
        },
        {
          "internalType": "uint256",
          "name": "setWhistlistPassMintLimit",
          "type": "uint256"
        },
        {
          "internalType": "bool",
          "name": "setPublicMintState",
          "type": "bool"
        },
        {
          "internalType": "bool",
          "name": "setPrivateMintState",
          "type": "bool"
        }
      ],
      "name": "setParams",
      "outputs": [],
      "stateMutability": "nonpayable",
      "type": "function"
    },
    {
      "inputs": [
        {
          "internalType": "bool",
          "name": "_state",
          "type": "bool"
        }
      ],
      "name": "setRevealed",
      "outputs": [],
      "stateMutability": "nonpayable",
      "type": "function"
    },
    {
      "inputs": [
        {
          "internalType": "address",
          "name": "newSigner",
          "type": "address"
        }
      ],
      "name": "setSignerAddress",
      "outputs": [],
      "stateMutability": "nonpayable",
      "type": "function"
    },
    {
      "inputs": [
        {
          "internalType": "uint256",
          "name": "newPrice",
          "type": "uint256"
        }
      ],
      "name": "setTokenPrice",
      "outputs": [],
      "stateMutability": "nonpayable",
      "type": "function"
    },
    {
      "inputs": [
        {
          "internalType": "uint256",
          "name": "newMintLimit",
          "type": "uint256"
        }
      ],
      "name": "setTransactionMintLimit",
      "outputs": [],
      "stateMutability": "nonpayable",
      "type": "function"
    },
    {
      "inputs": [
        {
          "internalType": "address",
          "name": "newVault",
          "type": "address"
        }
      ],
      "name": "setVaultAddress",
      "outputs": [],
      "stateMutability": "nonpayable",
      "type": "function"
    },
    {
      "inputs": [
        {
          "internalType": "uint256",
          "name": "newprivateMintLimit",
          "type": "uint256"
        }
      ],
      "name": "setWhitelistTransactionMintLimit",
      "outputs": [],
      "stateMutability": "nonpayable",
      "type": "function"
    },
    {
      "inputs": [
        {
          "internalType": "address",
          "name": "account",
          "type": "address"
        }
      ],
      "name": "shares",
      "outputs": [
        {
          "internalType": "uint256",
          "name": "",
          "type": "uint256"
        }
      ],
      "stateMutability": "view",
      "type": "function"
    },
    {
      "inputs": [
        {
          "internalType": "bytes4",
          "name": "interfaceId",
          "type": "bytes4"
        }
      ],
      "name": "supportsInterface",
      "outputs": [
        {
          "internalType": "bool",
          "name": "",
          "type": "bool"
        }
      ],
      "stateMutability": "view",
      "type": "function"
    },
    {
      "inputs": [],
      "name": "symbol",
      "outputs": [
        {
          "internalType": "string",
          "name": "",
          "type": "string"
        }
      ],
      "stateMutability": "view",
      "type": "function"
    },
    {
      "inputs": [
        {
          "internalType": "address",
          "name": "to",
          "type": "address"
        },
        {
          "internalType": "uint256",
          "name": "amount",
          "type": "uint256"
        }
      ],
      "name": "teamMint",
      "outputs": [],
      "stateMutability": "nonpayable",
      "type": "function"
    },
    {
      "inputs": [],
      "name": "toggleERC20PublicMint",
      "outputs": [],
      "stateMutability": "nonpayable",
      "type": "function"
    },
    {
      "inputs": [],
      "name": "togglePresaleMint",
      "outputs": [],
      "stateMutability": "nonpayable",
      "type": "function"
    },
    {
      "inputs": [],
      "name": "togglePublicMint",
      "outputs": [],
      "stateMutability": "nonpayable",
      "type": "function"
    },
    {
      "inputs": [],
      "name": "tokenPrice",
      "outputs": [
        {
          "internalType": "uint256",
          "name": "",
          "type": "uint256"
        }
      ],
      "stateMutability": "view",
      "type": "function"
    },
    {
      "inputs": [
        {
          "internalType": "uint256",
          "name": "_tokenId",
          "type": "uint256"
        }
      ],
      "name": "tokenURI",
      "outputs": [
        {
          "internalType": "string",
          "name": "",
          "type": "string"
        }
      ],
      "stateMutability": "view",
      "type": "function"
    },
    {
      "inputs": [
        {
          "internalType": "contract IERC20",
          "name": "token",
          "type": "address"
        }
      ],
      "name": "totalReleased",
      "outputs": [
        {
          "internalType": "uint256",
          "name": "",
          "type": "uint256"
        }
      ],
      "stateMutability": "view",
      "type": "function"
    },
    {
      "inputs": [],
      "name": "totalReleased",
      "outputs": [
        {
          "internalType": "uint256",
          "name": "",
          "type": "uint256"
        }
      ],
      "stateMutability": "view",
      "type": "function"
    },
    {
      "inputs": [],
      "name": "totalShares",
      "outputs": [
        {
          "internalType": "uint256",
          "name": "",
          "type": "uint256"
        }
      ],
      "stateMutability": "view",
      "type": "function"
    },
    {
      "inputs": [],
      "name": "totalSupply",
      "outputs": [
        {
          "internalType": "uint256",
          "name": "",
          "type": "uint256"
        }
      ],
      "stateMutability": "view",
      "type": "function"
    },
    {
      "inputs": [
        {
          "internalType": "address",
          "name": "tokenAddress",
          "type": "address"
        },
        {
          "internalType": "address",
          "name": "recipient",
          "type": "address"
        },
        {
          "internalType": "uint256",
          "name": "amount",
          "type": "uint256"
        }
      ],
      "name": "transferAnyERC20Token",
      "outputs": [],
      "stateMutability": "nonpayable",
      "type": "function"
    },
    {
      "inputs": [
        {
          "internalType": "address",
          "name": "destination",
          "type": "address"
        },
        {
          "internalType": "uint256",
          "name": "amount",
          "type": "uint256"
        }
      ],
      "name": "transferContractTokens",
      "outputs": [],
      "stateMutability": "nonpayable",
      "type": "function"
    },
    {
      "inputs": [
        {
          "internalType": "address",
          "name": "from",
          "type": "address"
        },
        {
          "internalType": "address",
          "name": "to",
          "type": "address"
        },
        {
          "internalType": "uint256",
          "name": "tokenId",
          "type": "uint256"
        }
      ],
      "name": "transferFrom",
      "outputs": [],
      "stateMutability": "nonpayable",
      "type": "function"
    },
    {
      "inputs": [
        {
          "internalType": "address",
          "name": "newOwner",
          "type": "address"
        }
      ],
      "name": "transferOwnership",
      "outputs": [],
      "stateMutability": "nonpayable",
      "type": "function"
    },
    {
      "inputs": [
        {
          "internalType": "address",
          "name": "_erc20Token",
          "type": "address"
        }
      ],
      "name": "updateERC20Token",
      "outputs": [],
      "stateMutability": "nonpayable",
      "type": "function"
    },
    {
      "inputs": [
        {
          "internalType": "uint256",
          "name": "_newPrice",
          "type": "uint256"
        }
      ],
      "name": "updateERC20TokenMintPrice",
      "outputs": [],
      "stateMutability": "nonpayable",
      "type": "function"
    },
    {
      "inputs": [
        {
          "internalType": "uint256",
          "name": "_multiplier",
          "type": "uint256"
        }
      ],
      "name": "updateMultiplier",
      "outputs": [],
      "stateMutability": "nonpayable",
      "type": "function"
    },
    {
      "inputs": [
        {
          "internalType": "uint256",
          "name": "quantity",
          "type": "uint256"
        },
        {
          "internalType": "uint256",
          "name": "claimable",
          "type": "uint256"
        },
        {
          "components": [
            {
              "internalType": "bytes32",
              "name": "r",
              "type": "bytes32"
            },
            {
              "internalType": "bytes32",
              "name": "s",
              "type": "bytes32"
            },
            {
              "internalType": "uint8",
              "name": "v",
              "type": "uint8"
            }
          ],
          "internalType": "struct IGLSkybox.WhitelistClaimPass",
          "name": "whitelistClaimPass",
          "type": "tuple"
        }
      ],
      "name": "whitelistClaimMint",
      "outputs": [],
      "stateMutability": "payable",
      "type": "function"
    },
    {
      "inputs": [],
      "name": "whitelistMintMaxLimit",
      "outputs": [
        {
          "internalType": "uint256",
          "name": "",
          "type": "uint256"
        }
      ],
      "stateMutability": "view",
      "type": "function"
    },
    {
      "inputs": [],
      "name": "whitelistTokenPrice",
      "outputs": [
        {
          "internalType": "uint256",
          "name": "",
          "type": "uint256"
        }
      ],
      "stateMutability": "view",
      "type": "function"
    },
    {
      "inputs": [],
      "name": "withdraw",
      "outputs": [],
      "stateMutability": "nonpayable",
      "type": "function"
    },
    {
      "stateMutability": "payable",
      "type": "receive"
    }
  ],
  "bytecode": "0x6032601281905560135566d529ae9e860000601455670de0b6b3a7640000601555600060165561038460175560016018556019805463ffffffff1916905560c06040526005608081905264173539b7b760d91b60a09081526200006691601b9190620008c6565b50601d80546001600160a01b0319908116909155601e805482169055601f8054909116905560408051808201909152600680825265446961626c6f60d01b6020909201918252620000ba91602191620008c6565b50604080518082019091526008808252676e667470756d707360c01b6020909201918252620000ec91602291620008c6565b50604051620057a4380380620057a48339810160408190526200010f9162000b75565b81818a8a6200011e336200033a565b815162000133906001906020850190620008c6565b50805162000149906002906020840190620008c6565b50506001600855508051825114620001c35760405162461bcd60e51b815260206004820152603260248201527f5061796d656e7453706c69747465723a2070617965657320616e6420736861726044820152710cae640d8cadccee8d040dad2e6dac2e8c6d60731b60648201526084015b60405180910390fd5b6000825111620002165760405162461bcd60e51b815260206004820152601a60248201527f5061796d656e7453706c69747465723a206e6f207061796565730000000000006044820152606401620001ba565b60005b825181101562000282576200026d8382815181106200023c576200023c62000cb6565b602002602001015183838151811062000259576200025962000cb6565b60200260200101516200038a60201b60201c565b80620002798162000ce2565b91505062000219565b5050601e80546001600160a01b03199081166001600160a01b038b811691909117909255601d805482168a8416179055601f805490911691881691909117905550620002db601062000578602090811b6200321b17901c565b620002f260106200057860201b6200321b1760201c565b620002ff33600162000581565b83516200031490601a906020870190620008c6565b5082516200032a90601c906020860190620008c6565b5050505050505050505062000de1565b600080546001600160a01b038381166001600160a01b0319831681178455604051919092169283917f8be0079c531659141344cd1fd0a4f28419497f9722a3daafe3b4186f6b6457e09190a35050565b6001600160a01b038216620003f75760405162461bcd60e51b815260206004820152602c60248201527f5061796d656e7453706c69747465723a206163636f756e74206973207468652060448201526b7a65726f206164647265737360a01b6064820152608401620001ba565b60008111620004495760405162461bcd60e51b815260206004820152601d60248201527f5061796d656e7453706c69747465723a207368617265732061726520300000006044820152606401620001ba565b6001600160a01b0382166000908152600b602052604090205415620004c55760405162461bcd60e51b815260206004820152602b60248201527f5061796d656e7453706c69747465723a206163636f756e7420616c726561647960448201526a206861732073686172657360a81b6064820152608401620001ba565b600d8054600181019091557fd7b6990105719101dabeb77144f2a3385c8033acd3af97e9423a695e81ad1eb50180546001600160a01b0319166001600160a01b0384169081179091556000908152600b602052604090208190556009546200052f90829062000d00565b600955604080516001600160a01b0384168152602081018390527f40c340f65e17194d14ddddb073d3c9f888e3cb52b5aae0c6c7706b4fbc905fac910160405180910390a15050565b80546001019055565b620005a3828260405180602001604052806000815250620005a760201b60201c565b5050565b620005b383836200061f565b620005c2600084848462000767565b6200061a5760405162461bcd60e51b815260206004820152603260248201526000805160206200578483398151915260448201527131b2b4bb32b91034b6b83632b6b2b73a32b960711b6064820152608401620001ba565b505050565b6001600160a01b038216620006775760405162461bcd60e51b815260206004820181905260248201527f4552433732313a206d696e7420746f20746865207a65726f20616464726573736044820152606401620001ba565b6000818152600360205260409020546001600160a01b031615620006de5760405162461bcd60e51b815260206004820152601c60248201527f4552433732313a20746f6b656e20616c7265616479206d696e746564000000006044820152606401620001ba565b6001600160a01b03821660009081526004602052604081208054600192906200070990849062000d00565b909155505060008181526003602052604080822080546001600160a01b0319166001600160a01b03861690811790915590518392907fddf252ad1be2c89b69c2b068fc378daa952ba7f163c4a11628f55a4df523b3ef908290a45050565b600062000788846001600160a01b0316620008c060201b620032241760201c565b15620008b457604051630a85bd0160e11b81526001600160a01b0385169063150b7a0290620007c290339089908890889060040162000d1b565b6020604051808303816000875af192505050801562000800575060408051601f3d908101601f19168201909252620007fd9181019062000d71565b60015b62000899573d80801562000831576040519150601f19603f3d011682016040523d82523d6000602084013e62000836565b606091505b508051620008915760405162461bcd60e51b815260206004820152603260248201526000805160206200578483398151915260448201527131b2b4bb32b91034b6b83632b6b2b73a32b960711b6064820152608401620001ba565b805181602001fd5b6001600160e01b031916630a85bd0160e11b149050620008b8565b5060015b949350505050565b3b151590565b828054620008d49062000da4565b90600052602060002090601f016020900481019282620008f8576000855562000943565b82601f106200091357805160ff191683800117855562000943565b8280016001018555821562000943579182015b828111156200094357825182559160200191906001019062000926565b506200095192915062000955565b5090565b5b8082111562000951576000815560010162000956565b634e487b7160e01b600052604160045260246000fd5b604051601f8201601f191681016001600160401b0381118282101715620009ad57620009ad6200096c565b604052919050565b60005b83811015620009d2578181015183820152602001620009b8565b83811115620009e2576000848401525b50505050565b600082601f830112620009fa57600080fd5b81516001600160401b0381111562000a165762000a166200096c565b62000a2b601f8201601f191660200162000982565b81815284602083860101111562000a4157600080fd5b620008b8826020830160208701620009b5565b80516001600160a01b038116811462000a6c57600080fd5b919050565b60006001600160401b0382111562000a8d5762000a8d6200096c565b5060051b60200190565b600082601f83011262000aa957600080fd5b8151602062000ac262000abc8362000a71565b62000982565b82815260059290921b8401810191818101908684111562000ae257600080fd5b8286015b8481101562000b085762000afa8162000a54565b835291830191830162000ae6565b509695505050505050565b600082601f83011262000b2557600080fd5b8151602062000b3862000abc8362000a71565b82815260059290921b8401810191818101908684111562000b5857600080fd5b8286015b8481101562000b08578051835291830191830162000b5c565b60008060008060008060008060006101208a8c03121562000b9557600080fd5b89516001600160401b038082111562000bad57600080fd5b62000bbb8d838e01620009e8565b9a5060208c015191508082111562000bd257600080fd5b62000be08d838e01620009e8565b995062000bf060408d0162000a54565b985062000c0060608d0162000a54565b975062000c1060808d0162000a54565b965060a08c015191508082111562000c2757600080fd5b62000c358d838e01620009e8565b955060c08c015191508082111562000c4c57600080fd5b62000c5a8d838e01620009e8565b945060e08c015191508082111562000c7157600080fd5b62000c7f8d838e0162000a97565b93506101008c015191508082111562000c9757600080fd5b5062000ca68c828d0162000b13565b9150509295985092959850929598565b634e487b7160e01b600052603260045260246000fd5b634e487b7160e01b600052601160045260246000fd5b600060001982141562000cf95762000cf962000ccc565b5060010190565b6000821982111562000d165762000d1662000ccc565b500190565b600060018060a01b03808716835280861660208401525083604083015260806060830152825180608084015262000d5a8160a0850160208701620009b5565b601f01601f19169190910160a00195945050505050565b60006020828403121562000d8457600080fd5b81516001600160e01b03198116811462000d9d57600080fd5b9392505050565b600181811c9082168062000db957607f821691505b6020821081141562000ddb57634e487b7160e01b600052602260045260246000fd5b50919050565b6149938062000df16000396000f3fe60806040526004361061044e5760003560e01c8063715018a611610243578063ce7c2ac211610143578063e7db8fb0116100bb578063ee73408a1161008a578063f47c84c51161006f578063f47c84c514610cbf578063fa468ead14610cd5578063fe471ed514610ceb57600080fd5b8063ee73408a14610c8c578063f2fde38b14610c9f57600080fd5b8063e7db8fb014610bee578063e985e9c514610c0e578063ed4dcde614610c57578063ee28de5214610c6c57600080fd5b8063d79779b211610112578063e0a80853116100f7578063e0a8085314610ba3578063e33b7de314610bc3578063e4a4255114610bd857600080fd5b8063d79779b214610b4d578063da3ef23f14610b8357600080fd5b8063ce7c2ac214610ac1578063d25f404714610af7578063d493b9ac14610b0d578063d77301c214610b2d57600080fd5b80639852595c116101d6578063add5a4fa116101a5578063b88d4fde1161018a578063b88d4fde14610a6c578063c668286214610a8c578063c87b56dd14610aa157600080fd5b8063add5a4fa14610a36578063af0bc6c314610a5657600080fd5b80639852595c146109b1578063a15d60c5146109e7578063a22cb46514610a01578063a45ba8e714610a2157600080fd5b80638b83209b116102125780638b83209b1461093e5780638da5cb5b1461095e57806395d89b411461097c578063978c1fb61461099157600080fd5b8063715018a6146108d35780637ff9b596146108e857806385535cc5146108fe5780638a13eea71461091e57600080fd5b80633ccfd60b1161034e5780634dffc5c3116102e157806355f804b3116102b05780636352211e116102955780636352211e146108735780636a61e5fc1461089357806370a08231146108b357600080fd5b806355f804b3146108335780635ffe61461461085357600080fd5b80634dffc5c3146107b25780634fdd43cb146107d257806351830227146107f2578063552f555a1461081357600080fd5b80634287084f1161031d5780634287084f1461073f57806342966c6814610752578063464b0e221461077257806348b750441461079257600080fd5b80633ccfd60b146106af5780634047638d146106c4578063406072a9146106d957806342842e0e1461071f57600080fd5b806318160ddd116103e157806323b872dd116103b0578063353f849e11610395578063353f849e146106665780633a98ef391461067b5780633c415ac21461069057600080fd5b806323b872dd146106305780632cb15fd31461065057600080fd5b806318160ddd146105c257806319165587146105e5578063200ba9a61461060557806320b2af521461061b57600080fd5b8063095ea7b31161041d578063095ea7b31461054d5780630a562aa91461056d5780630d738aeb146105825780630f1e6828146105a257600080fd5b806301ffc9a71461049c578063046dc166146104d157806306fdde03146104f3578063081812fc1461051557600080fd5b36610497577f6ef95f06320e7a25a04a175ca677b7052bdd97131872c2192525a629f51be77033604080516001600160a01b0390921682523460208301520160405180910390a1005b600080fd5b3480156104a857600080fd5b506104bc6104b736600461428d565b610d0b565b60405190151581526020015b60405180910390f35b3480156104dd57600080fd5b506104f16104ec3660046142bf565b610df0565b005b3480156104ff57600080fd5b50610508610e6c565b6040516104c89190614334565b34801561052157600080fd5b50610535610530366004614347565b610efe565b6040516001600160a01b0390911681526020016104c8565b34801561055957600080fd5b506104f1610568366004614360565b610fa4565b34801561057957600080fd5b506104f16110d6565b34801561058e57600080fd5b506104f161059d366004614347565b611158565b3480156105ae57600080fd5b506104f16105bd366004614347565b6111a5565b3480156105ce57600080fd5b506105d76111f2565b6040519081526020016104c8565b3480156105f157600080fd5b506104f16106003660046142bf565b61120e565b34801561061157600080fd5b506105d760185481565b34801561062757600080fd5b506105086113e8565b34801561063c57600080fd5b506104f161064b36600461438c565b611476565b34801561065c57600080fd5b506105d760175481565b34801561067257600080fd5b506105086114fd565b34801561068757600080fd5b506009546105d7565b34801561069c57600080fd5b506019546104bc90610100900460ff1681565b3480156106bb57600080fd5b506104f161150a565b3480156106d057600080fd5b506104f161158e565b3480156106e557600080fd5b506105d76106f43660046143cd565b6001600160a01b039182166000908152600f6020908152604080832093909416825291909152205490565b34801561072b57600080fd5b506104f161073a36600461438c565b6115ea565b6104f161074d366004614347565b611605565b34801561075e57600080fd5b506104f161076d366004614347565b6117cc565b34801561077e57600080fd5b506104f161078d366004614347565b61181d565b34801561079e57600080fd5b506104f16107ad3660046143cd565b61186a565b3480156107be57600080fd5b506104f16107cd3660046142bf565b611aef565b3480156107de57600080fd5b506104f16107ed366004614492565b611b66565b3480156107fe57600080fd5b506019546104bc906301000000900460ff1681565b34801561081f57600080fd5b506104f161082e366004614360565b611bc5565b34801561083f57600080fd5b506104f161084e366004614492565b611e38565b34801561085f57600080fd5b506104f161086e366004614347565b611e93565b34801561087f57600080fd5b5061053561088e366004614347565b611f62565b34801561089f57600080fd5b506104f16108ae366004614347565b611fed565b3480156108bf57600080fd5b506105d76108ce3660046142bf565b61203a565b3480156108df57600080fd5b506104f16120d4565b3480156108f457600080fd5b506105d760145481565b34801561090a57600080fd5b506104f16109193660046142bf565b612128565b34801561092a57600080fd5b50601e54610535906001600160a01b031681565b34801561094a57600080fd5b50610535610959366004614347565b61219f565b34801561096a57600080fd5b506000546001600160a01b0316610535565b34801561098857600080fd5b506105086121cf565b34801561099d57600080fd5b506104f16109ac366004614347565b6121de565b3480156109bd57600080fd5b506105d76109cc3660046142bf565b6001600160a01b03166000908152600c602052604090205490565b3480156109f357600080fd5b506019546104bc9060ff1681565b348015610a0d57600080fd5b506104f1610a1c3660046144e9565b612481565b348015610a2d57600080fd5b5061050861248c565b348015610a4257600080fd5b506104f1610a51366004614360565b612499565b348015610a6257600080fd5b506105d760155481565b348015610a7857600080fd5b506104f1610a87366004614517565b612594565b348015610a9857600080fd5b5061050861261c565b348015610aad57600080fd5b50610508610abc366004614347565b612629565b348015610acd57600080fd5b506105d7610adc3660046142bf565b6001600160a01b03166000908152600b602052604090205490565b348015610b0357600080fd5b506105d760125481565b348015610b1957600080fd5b506104f1610b2836600461438c565b6127b8565b348015610b3957600080fd5b506104bc610b4836600461438c565b612a26565b348015610b5957600080fd5b506105d7610b683660046142bf565b6001600160a01b03166000908152600e602052604090205490565b348015610b8f57600080fd5b506104f1610b9e366004614492565b612b03565b348015610baf57600080fd5b506104f1610bbe366004614597565b612b5e565b348015610bcf57600080fd5b50600a546105d7565b348015610be457600080fd5b506105d760135481565b348015610bfa57600080fd5b506104f1610c09366004614347565b612bdf565b348015610c1a57600080fd5b506104bc610c293660046143cd565b6001600160a01b03918216600090815260066020908152604080832093909416825291909152205460ff1690565b348015610c6357600080fd5b506104f1612c7e565b348015610c7857600080fd5b506019546104bc9062010000900460ff1681565b6104f1610c9a3660046145b4565b612ce5565b348015610cab57600080fd5b506104f1610cba3660046142bf565b6130ae565b348015610ccb57600080fd5b506105d7610bb881565b348015610ce157600080fd5b506105d760165481565b348015610cf757600080fd5b506104f1610d06366004614662565b61317b565b60007fffffffff0000000000000000000000000000000000000000000000000000000082167f80ac58cd000000000000000000000000000000000000000000000000000000001480610d9e57507fffffffff0000000000000000000000000000000000000000000000000000000082167f5b5e139f00000000000000000000000000000000000000000000000000000000145b80610dea57507f01ffc9a7000000000000000000000000000000000000000000000000000000007fffffffff000000000000000000000000000000000000000000000000000000008316145b92915050565b6000546001600160a01b03163314610e3d5760405162461bcd60e51b8152602060048201819052602482015260008051602061493e83398151915260448201526064015b60405180910390fd5b601f805473ffffffffffffffffffffffffffffffffffffffff19166001600160a01b0392909216919091179055565b606060018054610e7b906146c0565b80601f0160208091040260200160405190810160405280929190818152602001828054610ea7906146c0565b8015610ef45780601f10610ec957610100808354040283529160200191610ef4565b820191906000526020600020905b815481529060010190602001808311610ed757829003601f168201915b5050505050905090565b6000818152600360205260408120546001600160a01b0316610f885760405162461bcd60e51b815260206004820152602c60248201527f4552433732313a20617070726f76656420717565727920666f72206e6f6e657860448201527f697374656e7420746f6b656e00000000000000000000000000000000000000006064820152608401610e34565b506000908152600560205260409020546001600160a01b031690565b6000610faf82611f62565b9050806001600160a01b0316836001600160a01b031614156110395760405162461bcd60e51b815260206004820152602160248201527f4552433732313a20617070726f76616c20746f2063757272656e74206f776e6560448201527f72000000000000000000000000000000000000000000000000000000000000006064820152608401610e34565b336001600160a01b038216148061105557506110558133610c29565b6110c75760405162461bcd60e51b815260206004820152603860248201527f4552433732313a20617070726f76652063616c6c6572206973206e6f74206f7760448201527f6e6572206e6f7220617070726f76656420666f7220616c6c00000000000000006064820152608401610e34565b6110d1838361322a565b505050565b6000546001600160a01b0316331461111e5760405162461bcd60e51b8152602060048201819052602482015260008051602061493e8339815191526044820152606401610e34565b601980547fffffffffffffffffffffffffffffffffffffffffffffffffffffffffffff00ff81166101009182900460ff1615909102179055565b6000546001600160a01b031633146111a05760405162461bcd60e51b8152602060048201819052602482015260008051602061493e8339815191526044820152606401610e34565b601355565b6000546001600160a01b031633146111ed5760405162461bcd60e51b8152602060048201819052602482015260008051602061493e8339815191526044820152606401610e34565b601255565b600060016111ff60105490565b6112099190614711565b905090565b6001600160a01b0381166000908152600b60205260409020546112995760405162461bcd60e51b815260206004820152602660248201527f5061796d656e7453706c69747465723a206163636f756e7420686173206e6f2060448201527f73686172657300000000000000000000000000000000000000000000000000006064820152608401610e34565b60006112a4600a5490565b6112ae9047614728565b905060006112db83836112d6866001600160a01b03166000908152600c602052604090205490565b6132a5565b9050806113505760405162461bcd60e51b815260206004820152602b60248201527f5061796d656e7453706c69747465723a206163636f756e74206973206e6f742060448201527f647565207061796d656e740000000000000000000000000000000000000000006064820152608401610e34565b6001600160a01b0383166000908152600c602052604081208054839290611378908490614728565b9250508190555080600a60008282546113919190614728565b909155506113a1905083826132e3565b604080516001600160a01b0385168152602081018390527fdf20fd1e76bc69d672e4814fafb2c449bba3a5369d8359adf9e05e6fde87b056910160405180910390a1505050565b602180546113f5906146c0565b80601f0160208091040260200160405190810160405280929190818152602001828054611421906146c0565b801561146e5780601f106114435761010080835404028352916020019161146e565b820191906000526020600020905b81548152906001019060200180831161145157829003601f168201915b505050505081565b61148033826133fc565b6114f25760405162461bcd60e51b815260206004820152603160248201527f4552433732313a207472616e736665722063616c6c6572206973206e6f74206f60448201527f776e6572206e6f7220617070726f7665640000000000000000000000000000006064820152608401610e34565b6110d1838383613500565b602280546113f5906146c0565b6000546001600160a01b031633146115525760405162461bcd60e51b8152602060048201819052602482015260008051602061493e8339815191526044820152606401610e34565b601d546040516001600160a01b03909116904780156108fc02916000818181858888f1935050505015801561158b573d6000803e3d6000fd5b50565b6000546001600160a01b031633146115d65760405162461bcd60e51b8152602060048201819052602482015260008051602061493e8339815191526044820152606401610e34565b6019805460ff19811660ff90911615179055565b6110d183838360405180602001604052806000815250612594565b34816014546116149190614740565b11156116625760405162461bcd60e51b815260206004820152601560248201527f4e6f7420656e6f7567682065746865722073656e7400000000000000000000006044820152606401610e34565b600061166d60105490565b90506012548211156116c15760405162461bcd60e51b815260206004820152601560248201527f4d696e7420616d6f756e7420746f6f206c6172676500000000000000000000006044820152606401610e34565b6018546116ce9083614740565b60195490925060ff1615156001146117285760405162461bcd60e51b815260206004820152601260248201527f5075626c6963204d696e7420436c6f73656400000000000000000000000000006044820152606401610e34565b610bb8611736600183614711565b6117409084614728565b111561178e5760405162461bcd60e51b815260206004820152601b60248201527f4e6f7420656e6f75676820746f6b656e732072656d61696e696e6700000000006044820152606401610e34565b60005b828110156110d1576117a7601080546001019055565b6117ba336117b58385614728565b6136da565b806117c48161475f565b915050611791565b6000546001600160a01b031633146118145760405162461bcd60e51b8152602060048201819052602482015260008051602061493e8339815191526044820152606401610e34565b61158b816136f4565b6000546001600160a01b031633146118655760405162461bcd60e51b8152602060048201819052602482015260008051602061493e8339815191526044820152606401610e34565b601555565b6001600160a01b0381166000908152600b60205260409020546118f55760405162461bcd60e51b815260206004820152602660248201527f5061796d656e7453706c69747465723a206163636f756e7420686173206e6f2060448201527f73686172657300000000000000000000000000000000000000000000000000006064820152608401610e34565b6001600160a01b0382166000908152600e60205260408120546040516370a0823160e01b81523060048201526001600160a01b038516906370a0823190602401602060405180830381865afa158015611952573d6000803e3d6000fd5b505050506040513d601f19601f82011682018060405250810190611976919061477a565b6119809190614728565b905060006119b983836112d687876001600160a01b039182166000908152600f6020908152604080832093909416825291909152205490565b905080611a2e5760405162461bcd60e51b815260206004820152602b60248201527f5061796d656e7453706c69747465723a206163636f756e74206973206e6f742060448201527f647565207061796d656e740000000000000000000000000000000000000000006064820152608401610e34565b6001600160a01b038085166000908152600f6020908152604080832093871683529290529081208054839290611a65908490614728565b90915550506001600160a01b0384166000908152600e602052604081208054839290611a92908490614728565b90915550611aa390508484836136fd565b604080516001600160a01b038581168252602082018490528616917f3be5b7a71e84ed12875d241991c70855ac5817d847039e17a9d895c1ceb0f18a910160405180910390a250505050565b6000546001600160a01b03163314611b375760405162461bcd60e51b8152602060048201819052602482015260008051602061493e8339815191526044820152606401610e34565b601e805473ffffffffffffffffffffffffffffffffffffffff19166001600160a01b0392909216919091179055565b6000546001600160a01b03163314611bae5760405162461bcd60e51b8152602060048201819052602482015260008051602061493e8339815191526044820152606401610e34565b8051611bc190601c906020840190614190565b5050565b6000546001600160a01b03163314611c0d5760405162461bcd60e51b8152602060048201819052602482015260008051602061493e8339815191526044820152606401610e34565b60026008541415611c605760405162461bcd60e51b815260206004820152601f60248201527f5265656e7472616e637947756172643a207265656e7472616e742063616c6c006044820152606401610e34565b600260085580611cb25760405162461bcd60e51b815260206004820152600b60248201527f5a65726f20546f6b656e730000000000000000000000000000000000000000006044820152606401610e34565b601e546040516370a0823160e01b815230600482015282916001600160a01b0316906370a0823190602401602060405180830381865afa158015611cfa573d6000803e3d6000fd5b505050506040513d601f19601f82011682018060405250810190611d1e919061477a565b1015611d6c5760405162461bcd60e51b815260206004820152601960248201527f4e6f7420656e6f75676820746f6b656e7320746f2073656e64000000000000006044820152606401610e34565b601e5460405163a9059cbb60e01b81526001600160a01b038481166004830152602482018490529091169063a9059cbb906044016020604051808303816000875af1158015611dbf573d6000803e3d6000fd5b505050506040513d601f19601f82011682018060405250810190611de39190614793565b611e2f5760405162461bcd60e51b815260206004820152600f60248201527f7472616e73666572206661696c656400000000000000000000000000000000006044820152606401610e34565b50506001600855565b6000546001600160a01b03163314611e805760405162461bcd60e51b8152602060048201819052602482015260008051602061493e8339815191526044820152606401610e34565b8051611bc190601a906020840190614190565b6000546001600160a01b03163314611edb5760405162461bcd60e51b8152602060048201819052602482015260008051602061493e8339815191526044820152606401610e34565b600081118015611eeb5750600581105b611f5d5760405162461bcd60e51b815260206004820152602560248201527f5f6d756c7469706c696572206d7573742062652067726561746572207468616e60448201527f207a65726f0000000000000000000000000000000000000000000000000000006064820152608401610e34565b601855565b6000818152600360205260408120546001600160a01b031680610dea5760405162461bcd60e51b815260206004820152602960248201527f4552433732313a206f776e657220717565727920666f72206e6f6e657869737460448201527f656e7420746f6b656e00000000000000000000000000000000000000000000006064820152608401610e34565b6000546001600160a01b031633146120355760405162461bcd60e51b8152602060048201819052602482015260008051602061493e8339815191526044820152606401610e34565b601455565b60006001600160a01b0382166120b85760405162461bcd60e51b815260206004820152602a60248201527f4552433732313a2062616c616e636520717565727920666f7220746865207a6560448201527f726f2061646472657373000000000000000000000000000000000000000000006064820152608401610e34565b506001600160a01b031660009081526004602052604090205490565b6000546001600160a01b0316331461211c5760405162461bcd60e51b8152602060048201819052602482015260008051602061493e8339815191526044820152606401610e34565b6121266000613764565b565b6000546001600160a01b031633146121705760405162461bcd60e51b8152602060048201819052602482015260008051602061493e8339815191526044820152606401610e34565b601d805473ffffffffffffffffffffffffffffffffffffffff19166001600160a01b0392909216919091179055565b6000600d82815481106121b4576121b46147b0565b6000918252602090912001546001600160a01b031692915050565b606060028054610e7b906146c0565b601954610100900460ff166122355760405162461bcd60e51b815260206004820152601b60248201527f43616e2774206d696e74207769746820455243323020746f6b656e00000000006044820152606401610e34565b601e546040517fdd62ed3e0000000000000000000000000000000000000000000000000000000081523360048201523060248201526001600160a01b039091169063dd62ed3e90604401602060405180830381865afa15801561229c573d6000803e3d6000fd5b505050506040513d601f19601f820116820180604052508101906122c0919061477a565b816015546122ce9190614740565b111561231c5760405162461bcd60e51b815260206004820152601960248201527f4e6f7420656e6f75676820617070726f766564204552433230000000000000006044820152606401610e34565b600061232760105490565b905060125482111561237b5760405162461bcd60e51b815260206004820152601560248201527f4d696e7420616d6f756e7420746f6f206c6172676500000000000000000000006044820152606401610e34565b6018546123889083614740565b60195490925060ff1615156001146123e25760405162461bcd60e51b815260206004820152601260248201527f5075626c6963204d696e7420436c6f73656400000000000000000000000000006044820152606401610e34565b610bb86123f0600183614711565b6123fa9084614728565b11156124485760405162461bcd60e51b815260206004820152601b60248201527f4e6f7420656e6f75676820746f6b656e732072656d61696e696e6700000000006044820152606401610e34565b60005b828110156110d157612461601080546001019055565b61246f336117b58385614728565b806124798161475f565b91505061244b565b611bc13383836137c1565b601c80546113f5906146c0565b6000546001600160a01b031633146124e15760405162461bcd60e51b8152602060048201819052602482015260008051602061493e8339815191526044820152606401610e34565b60006124ec60105490565b9050610bb8826124fd600184614711565b6125079190614728565b11156125555760405162461bcd60e51b815260206004820152601b60248201527f4e6f7420656e6f75676820746f6b656e732072656d61696e696e6700000000006044820152606401610e34565b60005b8281101561258e5761256e601080546001019055565b61257c846117b58385614728565b806125868161475f565b915050612558565b50505050565b61259e33836133fc565b6126105760405162461bcd60e51b815260206004820152603160248201527f4552433732313a207472616e736665722063616c6c6572206973206e6f74206f60448201527f776e6572206e6f7220617070726f7665640000000000000000000000000000006064820152608401610e34565b61258e84848484613890565b601b80546113f5906146c0565b6000818152600360205260409020546060906001600160a01b03166126b65760405162461bcd60e51b815260206004820152602f60248201527f4552433732314d657461646174613a2055524920717565727920666f72206e6f60448201527f6e6578697374656e7420746f6b656e00000000000000000000000000000000006064820152608401610e34565b6019546301000000900460ff1661275957601c80546126d4906146c0565b80601f0160208091040260200160405190810160405280929190818152602001828054612700906146c0565b801561274d5780601f106127225761010080835404028352916020019161274d565b820191906000526020600020905b81548152906001019060200180831161273057829003601f168201915b50505050509050919050565b6000612763613919565b9050600081511161278357604051806020016040528060008152506127b1565b8061278d84613928565b601b6040516020016127a1939291906147c6565b6040516020818303038152906040525b9392505050565b6000546001600160a01b031633146128005760405162461bcd60e51b8152602060048201819052602482015260008051602061493e8339815191526044820152606401610e34565b600260085414156128535760405162461bcd60e51b815260206004820152601f60248201527f5265656e7472616e637947756172643a207265656e7472616e742063616c6c006044820152606401610e34565b6002600855806128a55760405162461bcd60e51b815260206004820152600b60248201527f5a65726f20546f6b656e730000000000000000000000000000000000000000006044820152606401610e34565b6040516370a0823160e01b815230600482015281906001600160a01b038516906370a0823190602401602060405180830381865afa1580156128eb573d6000803e3d6000fd5b505050506040513d601f19601f8201168201806040525081019061290f919061477a565b101561295d5760405162461bcd60e51b815260206004820152601960248201527f4e6f7420656e6f75676820746f6b656e7320746f2073656e64000000000000006044820152606401610e34565b60405163a9059cbb60e01b81526001600160a01b0383811660048301526024820183905284169063a9059cbb906044016020604051808303816000875af11580156129ac573d6000803e3d6000fd5b505050506040513d601f19601f820116820180604052508101906129d09190614793565b612a1c5760405162461bcd60e51b815260206004820152601060248201527f7472616e73666572206661696c656421000000000000000000000000000000006044820152606401610e34565b5050600160085550565b600080546001600160a01b03163314612a6f5760405162461bcd60e51b8152602060048201819052602482015260008051602061493e8339815191526044820152606401610e34565b6040517f095ea7b30000000000000000000000000000000000000000000000000000000081526001600160a01b0384811660048301526024820184905285169063095ea7b3906044016020604051808303816000875af1158015612ad7573d6000803e3d6000fd5b505050506040513d601f19601f82011682018060405250810190612afb9190614793565b949350505050565b6000546001600160a01b03163314612b4b5760405162461bcd60e51b8152602060048201819052602482015260008051602061493e8339815191526044820152606401610e34565b8051611bc190601b906020840190614190565b6000546001600160a01b03163314612ba65760405162461bcd60e51b8152602060048201819052602482015260008051602061493e8339815191526044820152606401610e34565b601980549115156301000000027fffffffffffffffffffffffffffffffffffffffffffffffffffffffff00ffffff909216919091179055565b6000546001600160a01b03163314612c275760405162461bcd60e51b8152602060048201819052602482015260008051602061493e8339815191526044820152606401610e34565b610bb8811115612c795760405162461bcd60e51b815260206004820152601a60248201527f46726565206d696e7420616d6f756e7420746f6f206c617267650000000000006044820152606401610e34565b601755565b6000546001600160a01b03163314612cc65760405162461bcd60e51b8152602060048201819052602482015260008051602061493e8339815191526044820152606401610e34565b6019805462ff0000198116620100009182900460ff1615909102179055565b818160008233604051602001612d0e9291909182526001600160a01b0316602082015260400190565b604051602081830303815290604052805190602001209050612d308183613a5a565b612d7c5760405162461bcd60e51b815260206004820152600c60248201527f496e76616c6964205061737300000000000000000000000000000000000000006044820152606401610e34565b3486601654612d8b9190614740565b1115612dd95760405162461bcd60e51b815260206004820152601560248201527f4e6f7420656e6f7567682065746865722073656e7400000000000000000000006044820152606401610e34565b6000612de460105490565b905060185487612df49190614740565b60195490975062010000900460ff161515600114612e545760405162461bcd60e51b815260206004820152601160248201527f436c61696d204d696e7420436c6f7365640000000000000000000000000000006044820152606401610e34565b610bb8612e62600183614711565b612e6c9089614728565b1115612eba5760405162461bcd60e51b815260206004820152601b60248201527f4e6f7420656e6f75676820746f6b656e732072656d61696e696e6700000000006044820152606401610e34565b85871115612f305760405162461bcd60e51b815260206004820152602d60248201527f4d696e74207175616e746974792063616e27742062652067726561746572207460448201527f68616e20636c61696d61626c65000000000000000000000000000000000000006064820152608401610e34565b60008711612fa65760405162461bcd60e51b815260206004820152602760248201527f4d696e74207175616e74697479206d757374206265206772656174657220746860448201527f616e207a65726f000000000000000000000000000000000000000000000000006064820152608401610e34565b601354871115612ff85760405162461bcd60e51b815260206004820152601760248201527f4d696e74207175616e7469747920746f6f206c617267650000000000000000006044820152606401610e34565b6017548761300560115490565b61300f9190614728565b111561305d5760405162461bcd60e51b815260206004820152601f60248201527f4e6f7420656e6f7567682066726565206d696e74732072656d61696e696e67006044820152606401610e34565b60005b878110156130a457613076601080546001019055565b613084601180546001019055565b613092336117b58385614728565b8061309c8161475f565b915050613060565b5050505050505050565b6000546001600160a01b031633146130f65760405162461bcd60e51b8152602060048201819052602482015260008051602061493e8339815191526044820152606401610e34565b6001600160a01b0381166131725760405162461bcd60e51b815260206004820152602660248201527f4f776e61626c653a206e6577206f776e657220697320746865207a65726f206160448201527f64647265737300000000000000000000000000000000000000000000000000006064820152608401610e34565b61158b81613764565b6000546001600160a01b031633146131c35760405162461bcd60e51b8152602060048201819052602482015260008051602061493e8339815191526044820152606401610e34565b601694909455601494909455601291909155601355601980547fffffffffffffffffffffffffffffffffffffffffffffffffffffffffff00ff001692151562ff00001916929092176201000091151591909102179055565b80546001019055565b3b151590565b6000818152600560205260409020805473ffffffffffffffffffffffffffffffffffffffff19166001600160a01b038416908117909155819061326c82611f62565b6001600160a01b03167f8c5be1e5ebec7d5bd14f71427d1e84f3dd0314c0f7b2291e5b200ac8c7c3b92560405160405180910390a45050565b6009546001600160a01b0384166000908152600b6020526040812054909183916132cf9086614740565b6132d991906148a0565b612afb9190614711565b804710156133335760405162461bcd60e51b815260206004820152601d60248201527f416464726573733a20696e73756666696369656e742062616c616e63650000006044820152606401610e34565b6000826001600160a01b03168260405160006040518083038185875af1925050503d8060008114613380576040519150601f19603f3d011682016040523d82523d6000602084013e613385565b606091505b50509050806110d15760405162461bcd60e51b815260206004820152603a60248201527f416464726573733a20756e61626c6520746f2073656e642076616c75652c207260448201527f6563697069656e74206d617920686176652072657665727465640000000000006064820152608401610e34565b6000818152600360205260408120546001600160a01b03166134865760405162461bcd60e51b815260206004820152602c60248201527f4552433732313a206f70657261746f7220717565727920666f72206e6f6e657860448201527f697374656e7420746f6b656e00000000000000000000000000000000000000006064820152608401610e34565b600061349183611f62565b9050806001600160a01b0316846001600160a01b031614806134cc5750836001600160a01b03166134c184610efe565b6001600160a01b0316145b80612afb57506001600160a01b0380821660009081526006602090815260408083209388168352929052205460ff16612afb565b826001600160a01b031661351382611f62565b6001600160a01b03161461358f5760405162461bcd60e51b815260206004820152602960248201527f4552433732313a207472616e73666572206f6620746f6b656e2074686174206960448201527f73206e6f74206f776e00000000000000000000000000000000000000000000006064820152608401610e34565b6001600160a01b03821661360a5760405162461bcd60e51b8152602060048201526024808201527f4552433732313a207472616e7366657220746f20746865207a65726f2061646460448201527f72657373000000000000000000000000000000000000000000000000000000006064820152608401610e34565b61361560008261322a565b6001600160a01b038316600090815260046020526040812080546001929061363e908490614711565b90915550506001600160a01b038216600090815260046020526040812080546001929061366c908490614728565b9091555050600081815260036020526040808220805473ffffffffffffffffffffffffffffffffffffffff19166001600160a01b0386811691821790925591518493918716917fddf252ad1be2c89b69c2b068fc378daa952ba7f163c4a11628f55a4df523b3ef91a4505050565b611bc1828260405180602001604052806000815250613b42565b61158b81613bcb565b604080516001600160a01b038416602482015260448082018490528251808303909101815260649091019091526020810180517bffffffffffffffffffffffffffffffffffffffffffffffffffffffff1663a9059cbb60e01b1790526110d1908490613c0b565b600080546001600160a01b0383811673ffffffffffffffffffffffffffffffffffffffff19831681178455604051919092169283917f8be0079c531659141344cd1fd0a4f28419497f9722a3daafe3b4186f6b6457e09190a35050565b816001600160a01b0316836001600160a01b031614156138235760405162461bcd60e51b815260206004820152601960248201527f4552433732313a20617070726f766520746f2063616c6c6572000000000000006044820152606401610e34565b6001600160a01b03838116600081815260066020908152604080832094871680845294825291829020805460ff191686151590811790915591519182527f17307eab39ab6107e8899845ad3d59bd9653f200f220920489ca2b5937696c31910160405180910390a3505050565b61389b848484613500565b6138a784848484613cf0565b61258e5760405162461bcd60e51b815260206004820152603260248201527f4552433732313a207472616e7366657220746f206e6f6e20455243373231526560448201527f63656976657220696d706c656d656e74657200000000000000000000000000006064820152608401610e34565b6060601a8054610e7b906146c0565b60608161396857505060408051808201909152600181527f3000000000000000000000000000000000000000000000000000000000000000602082015290565b8160005b8115613992578061397c8161475f565b915061398b9050600a836148a0565b915061396c565b60008167ffffffffffffffff8111156139ad576139ad614406565b6040519080825280601f01601f1916602001820160405280156139d7576020820181803683370190505b5090505b8415612afb576139ec600183614711565b91506139f9600a866148b4565b613a04906030614728565b60f81b818381518110613a1957613a196147b0565b60200101907effffffffffffffffffffffffffffffffffffffffffffffffffffffffffffff1916908160001a905350613a53600a866148a0565b94506139db565b60008060018484604001518560000151866020015160405160008152602001604052604051613aa5949392919093845260ff9290921660208401526040830152606082015260800190565b6020604051602081039080840390855afa158015613ac7573d6000803e3d6000fd5b5050604051601f1901519150506001600160a01b038116613b2a5760405162461bcd60e51b815260206004820152601860248201527f45434453413a20696e76616c6964207369676e617475726500000000000000006044820152606401610e34565b601f546001600160a01b039081169116149392505050565b613b4c8383613e8e565b613b596000848484613cf0565b6110d15760405162461bcd60e51b815260206004820152603260248201527f4552433732313a207472616e7366657220746f206e6f6e20455243373231526560448201527f63656976657220696d706c656d656e74657200000000000000000000000000006064820152608401610e34565b613bd481613fdd565b60008181526007602052604090208054613bed906146c0565b15905061158b57600081815260076020526040812061158b91614214565b6000613c60826040518060400160405280602081526020017f5361666545524332303a206c6f772d6c6576656c2063616c6c206661696c6564815250856001600160a01b03166140859092919063ffffffff16565b8051909150156110d15780806020019051810190613c7e9190614793565b6110d15760405162461bcd60e51b815260206004820152602a60248201527f5361666545524332303a204552433230206f7065726174696f6e20646964206e60448201527f6f742073756363656564000000000000000000000000000000000000000000006064820152608401610e34565b60006001600160a01b0384163b15613e83576040517f150b7a020000000000000000000000000000000000000000000000000000000081526001600160a01b0385169063150b7a0290613d4d9033908990889088906004016148c8565b6020604051808303816000875af1925050508015613d88575060408051601f3d908101601f19168201909252613d8591810190614904565b60015b613e38573d808015613db6576040519150601f19603f3d011682016040523d82523d6000602084013e613dbb565b606091505b508051613e305760405162461bcd60e51b815260206004820152603260248201527f4552433732313a207472616e7366657220746f206e6f6e20455243373231526560448201527f63656976657220696d706c656d656e74657200000000000000000000000000006064820152608401610e34565b805181602001fd5b7fffffffff00000000000000000000000000000000000000000000000000000000167f150b7a0200000000000000000000000000000000000000000000000000000000149050612afb565b506001949350505050565b6001600160a01b038216613ee45760405162461bcd60e51b815260206004820181905260248201527f4552433732313a206d696e7420746f20746865207a65726f20616464726573736044820152606401610e34565b6000818152600360205260409020546001600160a01b031615613f495760405162461bcd60e51b815260206004820152601c60248201527f4552433732313a20746f6b656e20616c7265616479206d696e746564000000006044820152606401610e34565b6001600160a01b0382166000908152600460205260408120805460019290613f72908490614728565b9091555050600081815260036020526040808220805473ffffffffffffffffffffffffffffffffffffffff19166001600160a01b03861690811790915590518392907fddf252ad1be2c89b69c2b068fc378daa952ba7f163c4a11628f55a4df523b3ef908290a45050565b6000613fe882611f62565b9050613ff560008361322a565b6001600160a01b038116600090815260046020526040812080546001929061401e908490614711565b9091555050600082815260036020526040808220805473ffffffffffffffffffffffffffffffffffffffff19169055518391906001600160a01b038416907fddf252ad1be2c89b69c2b068fc378daa952ba7f163c4a11628f55a4df523b3ef908390a45050565b6060612afb848460008585843b6140de5760405162461bcd60e51b815260206004820152601d60248201527f416464726573733a2063616c6c20746f206e6f6e2d636f6e74726163740000006044820152606401610e34565b600080866001600160a01b031685876040516140fa9190614921565b60006040518083038185875af1925050503d8060008114614137576040519150601f19603f3d011682016040523d82523d6000602084013e61413c565b606091505b509150915061414c828286614157565b979650505050505050565b606083156141665750816127b1565b8251156141765782518084602001fd5b8160405162461bcd60e51b8152600401610e349190614334565b82805461419c906146c0565b90600052602060002090601f0160209004810192826141be5760008555614204565b82601f106141d757805160ff1916838001178555614204565b82800160010185558215614204579182015b828111156142045782518255916020019190600101906141e9565b5061421092915061424a565b5090565b508054614220906146c0565b6000825580601f10614230575050565b601f01602090049060005260206000209081019061158b91905b5b80821115614210576000815560010161424b565b7fffffffff000000000000000000000000000000000000000000000000000000008116811461158b57600080fd5b60006020828403121561429f57600080fd5b81356127b18161425f565b6001600160a01b038116811461158b57600080fd5b6000602082840312156142d157600080fd5b81356127b1816142aa565b60005b838110156142f75781810151838201526020016142df565b8381111561258e5750506000910152565b600081518084526143208160208601602086016142dc565b601f01601f19169290920160200192915050565b6020815260006127b16020830184614308565b60006020828403121561435957600080fd5b5035919050565b6000806040838503121561437357600080fd5b823561437e816142aa565b946020939093013593505050565b6000806000606084860312156143a157600080fd5b83356143ac816142aa565b925060208401356143bc816142aa565b929592945050506040919091013590565b600080604083850312156143e057600080fd5b82356143eb816142aa565b915060208301356143fb816142aa565b809150509250929050565b634e487b7160e01b600052604160045260246000fd5b600067ffffffffffffffff8084111561443757614437614406565b604051601f8501601f19908116603f0116810190828211818310171561445f5761445f614406565b8160405280935085815286868601111561447857600080fd5b858560208301376000602087830101525050509392505050565b6000602082840312156144a457600080fd5b813567ffffffffffffffff8111156144bb57600080fd5b8201601f810184136144cc57600080fd5b612afb8482356020840161441c565b801515811461158b57600080fd5b600080604083850312156144fc57600080fd5b8235614507816142aa565b915060208301356143fb816144db565b6000806000806080858703121561452d57600080fd5b8435614538816142aa565b93506020850135614548816142aa565b925060408501359150606085013567ffffffffffffffff81111561456b57600080fd5b8501601f8101871361457c57600080fd5b61458b8782356020840161441c565b91505092959194509250565b6000602082840312156145a957600080fd5b81356127b1816144db565b600080600083850360a08112156145ca57600080fd5b843593506020850135925060607fffffffffffffffffffffffffffffffffffffffffffffffffffffffffffffffc08201121561460557600080fd5b506040516060810181811067ffffffffffffffff8211171561462957614629614406565b6040908152850135815260608501356020820152608085013560ff8116811461465157600080fd5b604082015292959194509192509050565b60008060008060008060c0878903121561467b57600080fd5b8635955060208701359450604087013593506060870135925060808701356146a2816144db565b915060a08701356146b2816144db565b809150509295509295509295565b600181811c908216806146d457607f821691505b602082108114156146f557634e487b7160e01b600052602260045260246000fd5b50919050565b634e487b7160e01b600052601160045260246000fd5b600082821015614723576147236146fb565b500390565b6000821982111561473b5761473b6146fb565b500190565b600081600019048311821515161561475a5761475a6146fb565b500290565b6000600019821415614773576147736146fb565b5060010190565b60006020828403121561478c57600080fd5b5051919050565b6000602082840312156147a557600080fd5b81516127b1816144db565b634e487b7160e01b600052603260045260246000fd5b6000845160206147d98285838a016142dc565b8551918401916147ec8184848a016142dc565b8554920191600090600181811c908083168061480957607f831692505b85831081141561482757634e487b7160e01b85526022600452602485fd5b80801561483b576001811461484c57614879565b60ff19851688528388019550614879565b60008b81526020902060005b858110156148715781548a820152908401908801614858565b505083880195505b50939b9a5050505050505050505050565b634e487b7160e01b600052601260045260246000fd5b6000826148af576148af61488a565b500490565b6000826148c3576148c361488a565b500690565b60006001600160a01b038087168352808616602084015250836040830152608060608301526148fa6080830184614308565b9695505050505050565b60006020828403121561491657600080fd5b81516127b18161425f565b600082516149338184602087016142dc565b919091019291505056fe4f776e61626c653a2063616c6c6572206973206e6f7420746865206f776e6572a2646970667358221220e9890f25c64c2b16dabe222ea1e3d0740a3f0aa075e1ff979efd7bf5df12b86e64736f6c634300080b00334552433732313a207472616e7366657220746f206e6f6e204552433732315265",
  "linkReferences": {},
  "deployedLinkReferences": {}
}